:100000000C9431070C9478070C9478070C947807BB
:100010000C9478070C9478070C9478070C94780764
:100020000C9478070C9478070C94A9280C947D29DB
:100030000C942C1B0C9478070C9478070C9478077C
:100040000C9478070C9478070C9478070C94780734
:100050000C9478070C949E1B0C9478070C947807EA
:100060000C9478070C9478070C9478070C94780714
:100070000C9478070C9478070C9478070C94780704
:100080000C9478070C9478070C9478070C947807F4
:100090000C9478070C9478070C9478070C947807E4
:1000A0000C9478070C9478070C9478070A00253094
:1000B000313662003A200025303258000A722F6330
:1000C00020303132333435363738394142434445B4
:1000D000460A0035001E001F002000210022003EBD
:1000E000004600230024002500260027002D002BB9
:1000F0000014001A00090013000A002F0030000D40
:10010000000F0018001C0033002E00290004001509
:10011000001600170007004B004D000B00110008EF
:10012000000C0012003400E1001D001B0006001945
:100130000005004E004A000E00100036003700385F
:1001400000E500E0003100E2000351E3002A004C2A
:100150000028002C000151025181008000E60000BF
:10016000003A003B003C003D003E00440045003F9B
:100170000040004100420043000000000000000079
:1001800000000000000000000000000B000D000E49
:10019000000F000000000000000000000000000050
:1001A000000000000000005000510052004F00000D
:1001B000000000000000000000000000000000003F
:1001C000000000AD00AE00AC00AB00A800000000D5
:1001D000000000000000000000000000000000001F
:1001E000000100000081008000000000000000000D
:1001F00000000000000000000000000000000000FF
:1002000000000000000000000000000000000000EE
:10021000000000000000000000240025002600006F
:1002200000000000000000000000000000000000CE
:100230000000000000210022002300000000000058
:100240000000000000000000000000000000002787
:10025000001E001F00200000000000000000000041
:10026000000000000000000000000000000000018D
:10027000000000000000000000680069006A006BD8
:10028000006C006D006E006F0070007100720073F2
:10029000000000000000000000000000000000005E
:1002A000000000000000000000000000000000004E
:1002B000000000000000000000000000000000003E
:1002C000000000000000000000000000000000002E
:1002D000000000000000000000000000000000001E
:1002E000000000000000000000000000000100000D
:1002F00000000000000000000000000000000000FE
:1003000000000044454255473A20656E61626C65C5
:10031000642E0A000A002530325820006B6579628D
:100320006F6172645F7265706F72743A20000A00C8
:1003300025303258006B6579626F6172645F736556
:10034000745F6C65643A20004F6E6573686F743A31
:100350002074696D656F75740A0064656C5F6B6508
:10036000795F6269743A2063616E27742064656CFA
:100370003A20253032580A006164645F6B65795F0A
:100380006269743A2063616E2774206164643A2064
:10039000253032580A00290A002575002F002575DE
:1003A000005D2800256400200025640020002564ED
:1003B0000020002564007C0025303258006D6F75E8
:1003C00073656B6579205B62746E7C78207920762A
:1003D00020685D287265702F61636C293A205B008C
:1003E0006D6B5F776865656C5F74696D655F746F71
:1003F0005F6D6178203D2025640A006D6B5F776832
:1004000065656C5F6D61785F7370656564203D2024
:1004100025640A006D6B5F74696D655F746F5F6D55
:100420006178203D2025640A006D6B5F6D61785F07
:100430007370656564203D2025640A006D6B5F69FB
:100440006E74657276616C203D2025640A006D6BC8
:100450005F64656C6179203D2025640A006D6B5FE7
:10046000776865656C5F74696D655F746F5F6D61FA
:1004700078203D2025640A006D6B5F776865656CA8
:100480005F6D61785F7370656564203D2025640A47
:10049000006D6B5F74696D655F746F5F6D6178206F
:1004A0003D2025640A006D6B5F6D61785F73706538
:1004B0006564203D2025640A006D6B5F696E74657C
:1004C0007276616C203D2025640A006D6B5F646567
:1004D0006C6179203D2025640A000A0025750036EC
:1004E0003A20776865656C5F74696D655F746F5FEE
:1004F0006D61783A20000A00257500353A2077684A
:1005000065656C5F6D61785F73706565643A200046
:100510000A00257500343A2074696D655F746F5F59
:100520006D61783A20000A00257500333A206D612C
:10053000785F73706565643A20000A0025750032A3
:100540003A20696E74657276616C286D73293A2061
:10055000000A00257500313A2064656C6179282A0B
:1005600031306D73293A20000A092D2056616C75CF
:100570006573202D0A004D3E004D25643E20003F4E
:10058000007365742064656661756C740A00433E8F
:10059000200077686572652064656C74613A206339
:1005A0007572736F723D25642C20776865656C3DAC
:1005B00025640A53656520687474703A2F2F656E40
:1005C0002E77696B6970656469612E6F72672F772A
:1005D000696B692F4D6F7573655F6B6579730A0081
:1005E0000A092D204D6F7573656B6579202D0A45BD
:1005F00053432F713A09717569740A313A09646578
:100600006C6179282A31306D73290A323A09696E92
:1006100074657276616C286D73290A333A096D61CD
:10062000785F73706565640A343A0974696D655F53
:10063000746F5F6D61780A353A09776865656C5F3C
:100640006D61785F73706565640A363A097768652D
:10065000656C5F74696D655F746F5F6D61780A0AC0
:10066000703A097072696E742076616C7565730AF0
:10067000643A097365742064656661756C74730A05
:1006800075703A092B310A646F776E3A092D310A79
:10069000706775703A092B31300A7067646F776E36
:1006A0003A092D31300A0A7370656564203D206473
:1006B000656C7461202A206D61785F737065656474
:1006C000202A2028726570656174202F2074696D5E
:1006D000655F746F5F6D6178290A003F004D3E20B1
:1006E00000433E20004C25640A0074696D65725F0A
:1006F00072656164333228293A202530346C580AF7
:10070000006B65796D61705F636F6E6669672E6EF1
:100710006B726F3A2025580A006B6579626F6172BF
:10072000645F69646C653A2025580A006B657962DC
:100730006F6172645F70726F746F636F6C3A2025C3
:10074000580A00686F73745F6B6579626F617264D9
:100750005F6C65647328293A2025580A000A092D20
:1007600020537461747573202D0A004743433A2067
:10077000382E332E30204156522D4C4942433A20D8
:10078000322E302E30204156525F415243483A209B
:10079000617672350A004F5054494F4E533A204CFF
:1007A000554641204D4F5553454B455920455854CA
:1007B00052414B455920434F4E534F4C4520434FD8
:1007C0004D4D414E44204E4B524F20343039360A65
:1007D000004255494C443A2022302E362E333238CE
:1007E0002D34302D676361366462662220283138EB
:1007F0003A31383A3431204170722020372032307B
:100800003139290A005649443A2030784645454452
:10081000284D61747469612044616C2042656E29C1
:10082000205049443A2030783630363028526564BA
:100830006F785F776972656C6573732920564552CE
:100840003A203078303030310A00444553433A2062
:10085000712E6D2E6B2E206B6579626F6172642034
:100860006669726D7761726520666F722052656489
:100870006F782D770A000A092D2056657273696F0B
:100880006E202D0A000A092D20436F6E736F6C6570
:10089000202D0A4553432F713A09717569740A6D09
:1008A0003A096D6F7573656B65790A000A092D2029
:1008B0004D61676963202D0A443A09446562756792
:1008C000204D65737361676520546F67676C650AB7
:1008D000583A094D617472697820446562756720E1
:1008E0004D6F646520546F67676C65202D205368D9
:1008F0006F77206B65797072657373657320696EAD
:10090000206D617472697820677269640A4B3A09D4
:100910004B6579626F61726420446562756720542B
:100920006F67676C65202D2053686F77206B657942
:100930007072657373207265706F72740A4D3A0934
:100940004465627567204D6F75736520546F6767E6
:100950006C650A563A0956657273696F6E0A533AA6
:10096000095374617475730A433A09416374697673
:1009700061746520436F6E736F6C65204D6F6465A5
:100980000A46312D4631303A09537769746368203D
:10099000746F204C6179657220302D3920284631E2
:1009A00030203D204C30290A302D393A09537769DF
:1009B00074636820746F204C6179657220302D3922
:1009C0000A47524156453A0953776974636820745F
:1009D0006F204C6179657220302028616C746572DB
:1009E0006E617465290A423A094A756D7020746F08
:1009F00020426F6F746C6F616465720A4553433AAD
:100A0000094A756D7020746F20426F6F746C6F614E
:100A10006465722028616C7465726E617465290A60
:100A2000453A095072696E7420454550524F4D2029
:100A300053657474696E67730A4253504143453A73
:100A400009436C65617220454550524F4D0A4E3A3C
:100A5000094E4B524F20546F67676C650A000A00BD
:100A60002575002E6E6B726F3A20000A0025750006
:100A70002E737761705F6261636B736C6173685F23
:100A80006261636B73706163653A20000A002575CB
:100A9000002E737761705F67726176655F6573635F
:100AA0003A20000A002575002E6E6F5F6775693A5F
:100AB00020000A002575002E737761705F72616CEB
:100AC000745F726775693A20000A002575002E73FD
:100AD0007761705F6C616C745F6C6775693A200058
:100AE0000A002575002E636170736C6F636B5F7411
:100AF0006F5F636F6E74726F6C3A20000A00257529
:100B0000002E737761705F636F6E74726F6C5F63DA
:100B10006170736C6F636B3A20000A0025303258A5
:100B2000006B65796D61705F636F6E6669672E72C9
:100B300061773A20000A002575002E6D6F75736588
:100B40003A20000A002575002E6B6579626F61728C
:100B5000643A20000A002575002E6D617472697870
:100B60003A20000A002575002E656E61626C653AB8
:100B700020000A00253032580064656275675F63A3
:100B80006F6E6669672E7261773A20000A002575DC
:100B90000064656661756C745F6C617965723A209A
:100BA000003F004E4B524F3A206F66660A004E4B94
:100BB000524F3A206F6E0A000A6D6F7573653A20C6
:100BC0006F66660A000A6D6F7573653A206F6E0A6C
:100BD000000A6B6579626F6172643A206F66660A1B
:100BE000000A6B6579626F6172643A206F6E0A0069
:100BF0000A6D61747269783A206F66660A000A6D40
:100C000061747269783A206F6E0A000A64656275D1
:100C1000673A206F66660A000A64656275673A2063
:100C20006F6E0A000A0A4A756D70696E6720746FEC
:100C300020626F6F746C6F616465722E2E2E2000BF
:100C4000433E2000436C656172696E6720454550E4
:100C5000524F4D0A006565636F6E6669673A0A0018
:100C60005B735D004B6579626F61726420737461C0
:100C700072742E0A005B575D005B535D005B525D32
:100C8000005B445D005B435D000403300000001E18
:100C9000035200650064006F0078005F0077006910
:100CA00000720065006C0065007300730000001E98
:100CB000034D00610074007400690061002000446D
:100CC0000061006C002000420065006E000000041E
:100CD00003090409025B00030100A0FA09040000F3
:100CE0000103010100092111010001224000070553
:100CF000810308000A090401000103000000092122
:100D00001101000122C0000705820320000A090426
:100D1000020002030000000921110100012222004B
:100D200007058303200001070503032000011201CA
:100D3000100100000008EDFE6060010001020301E7
:100D40000631FF0974A1010975150026FF009520E1
:100D5000750881020976150026FF00952075089117
:100D600002C005010902A10185020901A1000509CE
:100D700019012905150025019505750181029501C7
:100D8000750381010501093009311581257F95021F
:100D90007508810609381581257F9501750881063A
:100DA000050C0A38021581257F950175088106C05A
:100DB000C005010980A10185031601002603001A60
:100DC00081002A8300751095018100C0050C09017E
:100DD000A1018504160100269C021A01002A9C022A
:100DE000751095018100C005010906A10185050561
:100DF0000719E029E715002501950875018102050D
:100E00000819012905950575019102950175039150
:100E1000010507190029EF1500250195F0750181DD
:100E200002C005010906A101050719E029E715001F
:100E30002501950875018102950175088101050854
:100E40001901290595057501910295017503910117
:100E50000507190029FF150026FF00950675088172
:100E600000C011241FBECFEFDAE0DEBFCDBF04B655
:100E700003FE27C08091300290913102A09132028E
:100E8000B09133028730904BA740B04BD1F4109211
:100E9000300210923102109232021092330214BECC
:100EA00084B7877F84BF0FB6F894A89580916000BF
:100EB000886180936000109260000FBEE0E0F8E36C
:100EC000099511E0A0E0B1E0E4E7F8E502C0059083
:100ED0000D92AC32B107D9F722E0ACE2B1E001C02B
:100EE0001D92A033B207E1F70E94CA250C94AA2BE9
:100EF0000C940000FF93EF93E0912C01F0912D01F1
:100F0000309709F00995EF91FF910895FC018591C3
:100F1000803011F0EFDFFBCF0895FF27E0E230E2F1
:100F200047FF0CC0419597FF09C0EDE260957095B1
:100F300080959095611D711D811D911D27FF02C037
:100F4000219530E350E2AA27660F771F881F991F6B
:100F5000AA1FA41710F0A41B63955A95A9F7AA30ED
:100F600008F0A95FA05DAF93F39561157105810548
:100F7000910541F7ED3211F4EF93F395F21718F460
:100F80003F93F395FBCF8F91B5DFFA95E1F7089585
:100F9000E991F9918591803021F0853219F0AADF2D
:100FA000F9CF089520E0E89455915532C1F35033BC
:100FB00011F4689455915A3348F4505390F3220F2A
:100FC000022E220F220F200D250FF4CF0EF42195B3
:100FD00089919991533619F3533729F1533559F1C2
:100FE000BC0188279927E8945C3621F4899199916E
:100FF00068945591543639F446EF7EF077FF0DC072
:101000008FEF9FEF0AC055374AE039F0583540E17D
:1010100021F0523642E009F00895FF93EF937DDF0F
:10102000EF91FF91B7CFFF93EF93FC018191803057
:10103000B9F360DFFBCFFF93EF9368DFF1CFDF936E
:10104000CF93CDB7DEB72596A3DFCF91DF9108957B
:10105000089508950C944009EF92FF921F93CF9347
:10106000DF93CDB7DEB72B970FB6F894DEBF0FBE78
:10107000CDBF1092CC001092CD0088E18093C900C2
:1010800086E08093CA0083E78093CE00CE0101966C
:101090007C018BE0D7011D928A95E9F7D7019E016B
:1010A000245F3F4FC70140E050E0BA011091C800F3
:1010B00017FD0AC04F5F5F4F6F4F7F4F4131E7E22F
:1010C0005E076105710590F31091CE00FC0111934C
:1010D000CF01E217F30751F78B85803EB1F42EE282
:1010E00031E0B701665F7F4F11968C911197F0E860
:1010F0008F9FC00111244C91842BF901819391930E
:101100009F0112966A177B0779F70E94480981E0D0
:101110002B960FB6F894DEBF0FBECDBFDF91CF91F7
:101120001F91FF90EF900895E82FF0E0EE0FFF1F62
:10113000E25DFE4F808191810895CF92DF92EF9220
:10114000FF920F931F93CF93DF938CEB90E00E945D
:1011500086078EE2E82E81E0F82ED0E0C0E097EB23
:10116000C92E90E0D92E0EEA10E0DF93CF93DF92E4
:10117000CF920E941F0884EB90E00E948607F7013F
:10118000819191917F010E94A0199F938F931F934A
:101190000F930E941F088CEA90E00E948607219618
:1011A0008DB79EB708960FB6F8949EBF0FBE8DBF41
:1011B000C530D105D1F6DF91CF911F910F91FF90EE
:1011C000EF90DF90CF9008951092CC001092CD0058
:1011D00088E18093C90086E08093CA000895519AFF
:1011E000599A80B3806380BB81B3806381BB0895CB
:1011F0000E9428080E94E4080C94EF080C94290827
:10120000089581E0089581E008950C9403091F93E7
:10121000CF93DF9300D000D00F92CDB7DEB74983D4
:101220005A836B832091500189819A8121111BC0BF
:101230006623A9F00E94C517182F682F89819A810B
:101240000E94711769817A81812F0F900F900F9002
:101250000F900F90DF91CF911F910C94D80A0E94AC
:101260009D17182FEFCF0E94C51769817A81EDCFA6
:10127000FC01408151816281738184810C94070952
:101280000E94AD19811102C00E94271A0C94F8081F
:101290000C94FE080C94000908950E94B1120E945B
:1012A0004C092FEF84E39CE0215080409040E1F70F
:1012B00000C0000087E797E790930108809300083B
:1012C0000C94C21B0F931F93CF93DF938C010E944A
:1012D0003809EC01B8010E940509882309F47AC095
:1012E000C73D8CE5D80709F409C1B0F5C531FCE567
:1012F000DF07D0F4C2308CE5D80708F08DC0C115E7
:10130000ECE5DE0709F461C0C130DC4509F468C0D2
:1013100081E080933D0180933E01C801DF91CF9130
:101320001F910F910C940109C631DC4589F70E9489
:10133000A718F8019281992309F42CC18A7A91E0C7
:1013400009F490E090933801811122C189E20E9452
:1013500035180E9402193EC0CC3DECE5DE0709F4C9
:101360004DC020F5C83D8CE5D80709F4EEC0C93D55
:10137000DC4571F6F80182818111EBC080913E015C
:10138000811104C180913B0190913C010E94741B2A
:10139000883C910508F0FAC080E20E94101088E2B3
:1013A0000E94310F88E20E94DA0F14C0CD3DFCE5A7
:1013B000DF0761F1CE3DDC4509F0AACFF80182815B
:1013C000882341F00E94271A05C0F801828181110B
:1013D0000E944D0980E0DF91CF911F910F910895F8
:1013E000F80182818823B1F38091E70181608093C5
:1013F000E70183E093E00E948607ECCFF801828149
:10140000882341F380E00E947126E4CFF8018281B5
:10141000882301F382E0F7CFF8018281882309F461
:101420007CCF0E94AD19811102C00E94271A0E9430
:10143000C01990E09093220280932102FE01E350B4
:10144000FC45809121028160E231F10538F4E455D8
:10145000F44D0C944E2B80912102826080932102E6
:10146000809121020E94C4190E94B112B3CF8091D1
:1014700021028460F3CF809121028860EFCF8091B8
:1014800021028061EBCF809121028062E7CF8091C1
:1014900021028064E3CF809121028068DFCF8091B8
:1014A00021028C60DBCF809121028E7FD7CF80918B
:1014B00021028D7FD3CF809121028B7FCFCF80916E
:1014C0002102877FCBCF809121028F7EC7CF809171
:1014D00021028F7DC3CF809121028F7BBFCF80916E
:1014E00021028F77BBCF80912102837FB7CF90916C
:1014F0002102892F97FB87F98058B0CFF8018281AC
:10150000882361F010923D010E945C1B90933A0188
:101510008093390182E00E9409105CCF80913D01E7
:1015200081110FC08091390190913A010E94741B82
:10153000883C910530F486E20E94310F86E20E94D9
:10154000DA0F82E00E94101045CFF80182818823D3
:1015500051F010923E010E945C1B90933C018093DD
:101560003B0180E2D8CF80913E0181110FC0809174
:101570003B0190913C010E94741B883C910530F422
:1015800087E20E94310F87E20E94DA0F80E2DACF11
:1015900085E3DDCE80913801811104C089E20E948B
:1015A0003C18D7CE85E3FBCF90E080E00895089506
:1015B000972F70E02EE0929F600D711D1124FB01AA
:1015C00096E4899FE00DF11D1124EE0FFF1FED52EF
:1015D000FF4F859194910895FC01EE0FFF1FEC5E83
:1015E000FC4F859194910895CF93DF930E94D80A80
:1015F0000E94AD0CEC01811520E5920708F042C075
:10160000811530E4930708F014C1883E910528F550
:10161000803E910508F0A0C0883A910588F4853A8B
:10162000910508F08FC08130910509F495C00097AD
:1016300009F492C0049708F08FC0D0E0C0E08CC0DD
:101640008F3B910508F48CC0805C9109C03CD105AA
:10165000A0F30E94EC0AEC017FC08115904250F487
:10166000C11581E0D80708F077C0C03FD10528F345
:10167000D06572C0C11590E3D90708F0D0C0CE0183
:101680009F70E7CF811525E5920758F5811534E560
:10169000930708F0FDC0811542E5940750F4C11589
:1016A00081E5D80708F4C8C0DC2FCC27C16FD06A09
:1016B00053C0982F969596959E0123703327C11598
:1016C000D34508F0D6C0C1E0D0E002C0CC0FDD1F8A
:1016D0002A95E2F720E2929FC0011124C82BD92B52
:1016E000C6C0C11589E5D807A8F4C11598E5D90782
:1016F00008F0D3C0C11526E5D20708F09ECF8C2F85
:101700000E94280DC82FD0E0DC2FCC27CC27DF711A
:10171000D06222C0C1153AE5D30708F4C3C0CE0198
:1017200090568115904208F088CF8D2F8F710E94BE
:10173000280D90E0982F882788279F719C012C2BDB
:10174000E901E6CF853A910509F4BCC0863A9105D6
:1017500009F0BBC0C2E8D0E4CE01DF91CF9108957B
:10176000883A910509F4B4C0893A910509F4B3C0E7
:101770008A3A910509F4B2C08B3A910509F4B1C0D7
:101780008C3A910509F4B0C08B3B910509F4AFC0C8
:101790008C3B910509F4AEC08D3A910509F4ADC0BA
:1017A000803B910509F4ACC08E3A910509F4ABC0B9
:1017B0008F3A910509F4AAC0813B910509F4A9C0AB
:1017C000823B910509F4A8C0833B910509F4A7C0A9
:1017D000843B910509F4A6C0853B910509F4A5C099
:1017E000863B910509F4A4C0873B910509F4A3C089
:1017F000883B910509F4A2C0893B910509F4A1C079
:101800008D3B910509F4A0C08E3B910509F49FC062
:101810008A3B910509F49EC0C0E0D4E49DCFCE017F
:101820009927D3FF03C0EC01D86C96CFEC01D06CA4
:1018300093CFDF70D06A90CFCE01E4E09695879584
:10184000EA95E1F783702C2F26952695237090E278
:10185000299F90011124382B8C2F8370C1E0D0E098
:1018600002C0CC0FDD1F8A95E2F7C22BD32BDC68B8
:1018700073CFC1E0D0E002C0CC0FDD1F2A95E2F7A4
:1018800030E2939FC0011124C82BD92BDA6864CFB2
:10189000D82FCC27C46FD06A5FCFDC2FCC27C06F86
:1018A000D06A5ACF8C2F8F700E94280D34E0D695C5
:1018B000C7953A95E1F79C2F9F70C82FCF70C06EE7
:1018C000D92FB8CFC1E8D0E447CFC3E8D0E444CFA4
:1018D000C2EED4E441CFC9EED4E43ECFCAEED4E4A4
:1018E0003BCFC5EBD4E438CFC6EBD4E435CFC3EB64
:1018F000D4E432CFC4EBD4E42FCFC7EBD4E42CCF65
:10190000CCECD4E429CFCDECD4E426CFC3E8D5E4A5
:1019100023CFCAE8D5E420CFC2E9D5E41DCFC4E97E
:10192000D5E41ACFC1E2D6E417CFC3E2D6E414CF90
:10193000C4E2D6E411CFC5E2D6E40ECFC6E2D6E4C7
:101940000BCFC7E2D6E408CFCFE6D4E405CFC0E79B
:10195000D4E402CFCAE2D6E4FFCE8238910549F141
:10196000B0F48133910509F462C048F489329105DD
:1019700009F456C08A32910509F460C00895853390
:10198000910509F446C08933910599F00895833E85
:10199000910531F138F4803E910591F0823E910538
:1019A000B1F00895863E910521F1873E910551F1F0
:1019B0000895209121022370D9F080EE90E00895DF
:1019C0002091210220FF14C089E390E00895209126
:1019D000210222FF0DC024FD09C083EE90E008958E
:1019E0002091210222FD31C024FF02C090E080E05E
:1019F00008952091210223FFFBCF24FDF7CF87EE2E
:101A000090E008952091210223FFEECF86EE90E032
:101A100008952091210225FFEBCF89E290E00895FF
:101A20002091210225FFE4CF85E390E008952091E5
:101A3000210226FFDDCF8AE290E008952091210265
:101A400026FFD6CF81E390E0089582EE90E00895DE
:101A50009091210292FF06C0282F2871283069F446
:101A6000877F846093FF06C0282F2871283161F496
:101A7000877E846194FD877E0895282F2471243009
:101A800089F78B7F8860EECF282F2471243191F75E
:101A90008B7E8861EFCF909344018093430108953A
:101AA000E0914301F0914401309721F00190F081E1
:101AB000E02D099480E00895EF92FF920F931F9319
:101AC000CF93DF93EC01E0914301F0914401309713
:101AD00009F446C080911201882341F080912102CF
:101AE00087FF04C08881898385E088830280F38131
:101AF000E02DCE0109958091E70182FF31C080FF82
:101B000004C08CE193E00E94860710E000E086E1CB
:101B1000E82E83E0F82E8091E70180FF0EC0FE01E1
:101B2000E00FF11F80811F928F93FF92EF920E942E
:101B30001F080F900F900F900F900F5F1F4F0830EE
:101B4000110549F78091E70180FF0AC084E193E025
:101B5000DF91CF911F910F91FF90EF900C9486072A
:101B6000DF91CF911F910F91FF90EF900895E09139
:101B70004301F0914401309739F022E0DC012C93CD
:101B80000480F581E02D0994089520914101309160
:101B900042012817390771F0909342018093410167
:101BA000E0914301F0914401309721F00680F781E4
:101BB000E02D0994089520913F01309140012817AC
:101BC000390771F09093400180933F01E091430108
:101BD000F0914401309721F00084F185E02D0994C3
:101BE000089585B7806885BF85B7806885BF0895EB
:101BF000089508950C94F80D08950C94FC0D0E941E
:101C0000F10D0E94F90D0C94FA0D81E008950E94E7
:101C1000531B0E942A080E94D31B0C94FD0DCF93E6
:101C2000C82F8091E70182FF1EC080FF1CC085E3A2
:101C300093E00E9486078091E70180FF14C01F9205
:101C4000CF9380E393E09F938F930E941F0880912E
:101C5000E7010F900F900F900F9080FF04C08EE26D
:101C600093E00E9486078C2FCF910C944A095F92D3
:101C70006F927F928F929F92AF92BF92CF92DF929C
:101C8000EF92FF920F931F93CF93DF93CDB7DEB701
:101C90002A970FB6F894DEBF0FBECDBF0E942C0866
:101CA0000E94050E882309F47AC096E4A92E91E0DB
:101CB000B92E10E000E088248394912C502E802FC0
:101CC0000E9494087C01F501C190D1905F01C81673
:101CD000D90609F45EC08091E70181FD0E949D084C
:101CE00090E080E0CE24DF243401082E02C0660C90
:101CF000771C0A94E2F7960126213721232B09F459
:101D000043C08E835F82E620F72081E0EF2809F44C
:101D100080E088870E945C1B8160782F9A87898782
:101D20004E815F8168858A850E94F60E000F111F23
:101D3000F801EA5BFE4F80819181682679267182E5
:101D400060820E94E31D0E94500D90914501891709
:101D5000B9F10E94500D809345012A960FB6F89470
:101D6000DEBF0FBECDBFDF91CF911F910F91FF90CE
:101D7000EF90DF90CF90BF90AF909F908F907F902B
:101D80006F905F900C940F0E01968E30910509F0C4
:101D9000ABCF0F5F1F4F0530110509F08FCF8FEFCD
:101DA00089838A831B820E945C1B8160782F9D83BC
:101DB0008C8349815A816B818D810E94F60EC1CF3F
:101DC0002A960FB6F894DEBF0FBECDBFDF91CF913C
:101DD0001F910F91FF90EF90DF90CF90BF90AF9049
:101DE0009F908F907F906F905F900895CF93DF9337
:101DF000CDB7DEB72B970FB6F894DEBF0FBECDBFC1
:101E00004F83588769877A878B871E821D8285E07A
:101E1000FE013796DE01119601900D928A95E1F749
:101E20000E947618882319F082E00E946B190E94A4
:101E3000491881110E94F41849815A816B817C8173
:101E40008D819E812B960FB6F894DEBF0FBECDBF5D
:101E5000DF91CF910C945115FC01808191810C94FC
:101E60000718CF93C82F882309F4A2C08CEF8C0FDA
:101E7000813A58F48C2F0E941222811199C08C2F24
:101E80000E943518CF910C94021980E28C0F883093
:101E900048F4C77081E001C0880FCA95EAF70E9434
:101EA000AA18F0CF8BE58C0F833068F481E890E0BE
:101EB000C53A31F083E890E0C63A11F482E890E048
:101EC000CF910C94C50D88E58C0F873108F068C060
:101ED00082EE90E0C83A09F460C089EE90E0C93A19
:101EE00009F45BC08AEE90E0CA3A09F456C085EB6B
:101EF00090E0CB3A09F451C086EB90E0CC3A09F47B
:101F00004CC083EB90E0CB3B09F447C084EB90E0FE
:101F1000CC3B09F442C087EB90E0CD3AF1F18CEC78
:101F200090E0C03BD1F18DEC90E0CE3AB1F183E886
:101F300091E0CF3A91F18AE891E0C13B71F182E9F9
:101F400091E0C23B51F184E991E0C33B31F181E280
:101F500092E0C43B11F183E292E0C53BF1F084E2F0
:101F600092E0C63BD1F085E292E0C73BB1F086E259
:101F700092E0C83B91F087E292E0C93B71F08FE6B6
:101F800090E0CD3B51F080E790E0CE3B31F090E027
:101F900080E0CA3B11F48AE292E0CF910C94DB0D11
:101FA000C03F30F08C2F0E946F1CCF910C94561DB7
:101FB000CF910895882361F19CEF980F913A20F416
:101FC0000E943C180C94021990E2980F983050F43B
:101FD000877091E001C0990F8A95EAF7892F0E94D6
:101FE000B018F0CF9BE5980F933020F490E080E09C
:101FF0000C94C50D98E5980F973120F490E080E09F
:102000000C94DB0D803F20F00E94D71C0C94561DD1
:102010000895882321F00E94AA180C9402190895AB
:10202000882321F00E94B0180C94021908958F9211
:102030009F92AF92BF92CF92DF92EF92FF920F9357
:102040001F93CF93DF937C01D62FC72FFC0105810F
:1020500002950F70128111110E94C7180E94A018DA
:10206000C82E882371F01123B1F080E28D0F8830E3
:1020700090F082E00E946B190E94A01891E0C82E97
:10208000C926DC2ED2949FE0D922ED2DF0E0E25457
:10209000F44D0C944E2BC12CF4CF0C2F0F70C07F3D
:1020A00011F00295007F1123A9F0002359F080E27E
:1020B0008D0F883010F0D11109C0802F0E94AA180E
:1020C0000E9402198D2F0E94310F14C0802F0E9490
:1020D000BA18F6CF8D2F0E94DA0F002359F080E254
:1020E0008D0F883010F0D11133C0802F0E94B018AE
:1020F0000E94021998E0D91639F0D91648F086E006
:102100008D0D8F70823020F40E94500D0E944A097C
:10211000CC2009F4D9C10E94721880FDD5C1F70105
:1021200012820E946C180E94D516C7010E9471127B
:102130000E946C18DF91CF911F910F91FF90EF904B
:10214000DF90CF90BF90AF909F908F900C94F61639
:10215000802F0E94C018CCCFFC2FFF70BF2EC07FF5
:10216000C03219F0B29480EFB822DD2369F0D1308B
:1021700049F1112391F1002351F1F701858180FF8D
:10218000A1CF8F70858323C0112381F0011106C078
:102190000E94DA188B290E940910ACCF0130C1F7D8
:1021A0000E94DA188B290E94E018A4CF011106C002
:1021B0000E94F4188B2D0E9410109CCF013009F45E
:1021C00099CFF6CF112329F0063008F093CF8B2D4D
:1021D000E2CF053008F08ECFEDCF002359F38D2FDD
:1021E0000E94DA0F87CF8C2F86958695837069F0D1
:1021F000813009F07FCF8D2F9C2F9370111102C079
:1022000090E080E00E94DB0D75CF8D2F9C2F9370A6
:10221000111102C090E080E00E94C50D6BCF112328
:1022200009F1D53F99F0D63FB9F0D43F49F48091F8
:102230001B0290911C02816090931C0280931B02F0
:102240008D2F0E946F1C0E94561D54CF80911B023F
:1022500090911C028260F0CF80911B0290911C0231
:102260008460EACFD53F89F0D63FA9F0D43F49F446
:1022700080911B0290911C028E7F90931C02809390
:102280001B028D2F0E94D71CDECF80911B029091E4
:102290001C028D7FF2CF80911B0290911C028B7FDC
:1022A000ECCF8C2F837009F047C0111123CF2D2F55
:1022B000229526952770220F220F6D2F6F70862E84
:1022C000912CB12CA12C022E04C0880C991CAA1CA4
:1022D000BB1C0A94D2F760E070E0CB01D4FF0FC0C2
:1022E0006FE070E080E090E004C0660F771F881F09
:1022F000991F2A95D2F76095709580959095C6950F
:10230000C695C370C23051F080F4682979298A29B2
:102310009B29C13071F00E948716ECCE682979297B
:102320008A299B290E949916E5CE0E948716C5012D
:10233000B4010E947516DECE8695112311F08C2F04
:102340008170882309F4D6CE2D2F229526952770EB
:10235000220F220F6D2F6F70862E912CB12CA12C85
:10236000022E04C0880C991CAA1CBB1C0A94D2F72C
:1023700060E070E0CB01D4FF0FC06FE070E080E060
:1023800090E004C0660F771F881F991F2A95D2F727
:102390006095709580959095C695C695C370C2302E
:1023A00051F080F4682979298A299B29C13071F07C
:1023B0000E944C179FCE682979298A299B290E945F
:1023C0005E1798CE0E944C17C501B4010E943A17BF
:1023D00091CEE0E2ED0FE53108F04DC0F0E0E253C0
:1023E000F44D0C944E2BDF708C2F8F71112321F044
:1023F0000E94D5168D2FCFCE0E94F6168D2FDBCEE4
:10240000112341F0053008F075CE8C2F8F710E949A
:10241000191770CE063008F06DCEF7CF8C2F8F7164
:10242000112339F00E94D51665CE8C2F8F711123A0
:10243000C9F30E94F6165ECE112329F08C2F8F71FE
:102440000E94C01657CE0E94BB1654CE112349F0ED
:10245000CF718C2F0E94D51663E08C2F0E944C19EF
:1024600049CE81E00E946B19023008F443CE82E02D
:102470000E946B193FCE112329F0011123CE8C2F1E
:102480008F71D0CF002369F0D93309F0A8CEFFEFC8
:1024900027EE83E0F15020408040E1F700C00000CB
:1024A0009ECE8C2F8F71C5CF4C2F4F706D2FC701D3
:1024B0000E94D40A0E94EB151DCE4C2F4F706D2F39
:1024C000C7010E94D70A16CEDF91CF911F910F91BD
:1024D000FF90EF90DF90CF90BF90AF909F908F9044
:1024E00008950F931F93CF93DF93EC018B819C8111
:1024F000892B29F08881998189238F3F29F4DF91E5
:10250000CF911F910F910895CE010E9462098823F7
:10251000B1F3688179818A810E9411188C010E942F
:1025200070170E947216B801CE01DF91CF911F91F2
:102530000F910C9417100E94C7180E94D7180E9480
:1025400002190E946D1E0E94561D90E080E00E94BC
:10255000C50D90E080E00C94DB0D0E9443180C94B4
:102560009B120E94B7180C94AD12E92FE295EF7000
:10257000E250EE3070F4F0E0ED51F44D0C944E2B3F
:10258000803F19F020F4803E20F481E00895843FDC
:10259000E1F380E00895803EC0F3813FD1F7F5CFAD
:1025A00093FB882780F908950E9407180C94B512B0
:1025B000CF93DF9300D000D00F92CDB7DEB70F904E
:1025C0000F900F900F900F90DF91CF910895CF93C0
:1025D000DF9300D000D000D0CDB7DEB726960FB67F
:1025E000F894DEBF0FBECDBFDF91CF9108951F934A
:1025F000CF93DF93C091510116E0809152018C136B
:1026000004C0DF91CF911F910895D0E01C9FF0018D
:102610001D9FF00D1124ED5AFE4F408151816281C2
:102620007381848195810E94E7122196C770E5CF5E
:1026300040918301509184016091850170918601E0
:1026400080918701909188010C94E7121F93CF939A
:10265000DF9380918801807FC1F480918501882378
:10266000A1F080915101C09152016091830170915C
:1026700084014091860150918701D62FD723DA013A
:10268000A095B09516E0C81304C0DF91CF911F91BB
:10269000089590E04115510511F0DF3F31F40196A6
:1026A0008770F1CF2A0F3B1F17C0189FF001199FA9
:1026B000F00D1124ED5AFE4F21812713F0CF208118
:1026C0002613EDCF22812111EACF238134812417F3
:1026D000350740F3241B350B283C310500F72091CA
:1026E00088012F7020612093880126E0289FF00147
:1026F000299FF00D1124E85AFE4F80818F70806170
:10270000808383E891E00E947112DF91CF911F9145
:102710000C94F712BF92CF92DF92EF92FF920F9339
:102720001F93CF93DF93CDB7DEB761970FB6F894C1
:10273000DEBF0FBECDBF8C0185E0F801DE011D9626
:1027400001900D928A95E1F7D8014C9111965C9118
:1027500011971296EC9012978091860190918701C3
:10276000009709F47FC12091830130918401622F89
:1027700063236F3F09F476C11396CD90DC90B0903F
:102780008501BB2009F411C1C816D906D0F1F601A4
:10279000E81BF90BCF01FF24F394883C910508F066
:1027A000F12C80918801982F907FFF2009F4B8C008
:1027B00091117FC0FE2C351329C0241327C0E110CE
:1027C00025C08F708061809388010E94181383E870
:1027D00091E00E94711280918801D80115968C9326
:1027E0008F2D61960FB6F894DEBF0FBECDBFDF917F
:1027F000CF911F910F91FF90EF90DF90CF90BF90FE
:102800000895809590958C0D9D1DC5CFCD2829F0FC
:10281000852F84238F3F09F041C180E0B82FB1702C
:10282000DB2E80FF3CC0809151012091520136E0A7
:10283000821315C04D875E878D859E850E9407187F
:10284000292F22952F702230F0F0243018F59F7038
:10285000F1F0F8019581907FD1F4D12C1EC090E069
:10286000389FF001399FF00D1124ED5AFE4F618120
:10287000651306C06081641303C06281E6120FC055
:1028800001968770D5CF9F7011F0882331F3805E59
:10289000883018F3C8010E947112FD2CA1CFEE20E0
:1028A00009F49ECF80918801816080938801F12C8A
:1028B00097CF351306C0241304C0D801EE2009F4C5
:1028C0009AC04D875E878D859E850E94D41288238D
:1028D00019F1EE2009F180918801803270F0209189
:1028E00083013091840138872F831986DB86CA865D
:1028F0008C87CE0107960E94711286E0F801A3E84A
:10290000B1E001900D928A95E1F70E9426130E9492
:102910001813FF24F39464CFC8010E947112F9CFF9
:10292000911113C07C2DD98AC88A6E2D89890E9485
:10293000D81283E891E00E94711286E0E3E8F1E0AA
:10294000DF011D928A95E9F763C0351312C0241385
:1029500010C0E1100EC0F8018583C8010E947112F9
:10296000E3E8F1E086E0DF011D928A95E9F7FB2CB0
:1029700037CF4D875E878D859E850E94D412882330
:1029800059F2EE2049F280918801803208F4B5CFE7
:1029900020918301309184013A8329831B82DD8257
:1029A000CC828E83CE010196A6CFC816D90698F1A7
:1029B000F601E81BF90BCF01F12C883C910508F0DA
:1029C00049C0FE2CEE2009F4A7CF351332C02413E2
:1029D00030C08091880180FD23C0982F907F01F145
:1029E000D80115968C931597903F39F0982F907FCA
:1029F000905F8F70892B15968C93C8010E9471127D
:102A000086E0F801A3E8B1E001900D928A95E1F724
:102A10000E941813E5CE809590958C0D9D1DCCCF0E
:102A200086E0F801A3E8B1E001900D928A95E1F704
:102A3000D7CE4D875E878D859E850E94D4128111E9
:102A40005CCF80918801816080938801C8010E94D9
:102A50007112C6CE7C2DD98AC88A6E2D89890E94B2
:102A6000D8126BCFEE2009F457CF4D875E878D8546
:102A70009E850E94D412F82E882309F44DCF86E05B
:102A8000F801A3E8B1E001900D928A95E1F783E89F
:102A900091E00E942C0F0E942613BACF81E08E2570
:102AA000BDCE1F93CF93DF93CDB7DEB72C970FB674
:102AB000F894DEBF0FBECDBF4F83588769877A87F2
:102AC0008B879C87CE0107960E948A13882369F022
:102AD0008A859B85892B39F04F815885842F8523E2
:102AE0008F3F09F071C016E05FC086E0FE013796A7
:102AF000DE01119601900D928A95E1F78A859B85FA
:102B0000892B89F388859F8189238F3F61F32091E9
:102B1000520130E0C9010196877099274091510117
:102B20004817190671F40E94B112109252011092C6
:102B3000510186E0E3E8F1E0DF011D928A95E9F7B3
:102B4000D2CF96E0929FD001939FB00D1124AD5A41
:102B5000BE4FFE01319601900D929A95E1F7809358
:102B600052010E94F712BFCF819FC00111248D5ADC
:102B70009E4F0E948A138823E9F0E09151011E9F25
:102B8000F0011124ED5AFE4F408151816281738121
:102B9000848195810E94E7128091510190E0019615
:102BA0008770992780935101809151019091520132
:102BB0008913DACF2C960FB6F894DEBF0FBECDBFC7
:102BC000DF91CF911F91089569857A858B859C85CA
:102BD0000E94E71288CFEF92FF920F931F93CF933B
:102BE000DF938C01892B81F0F12CEE24E394E80132
:102BF0002196F8018491843770F4843008F05FC026
:102C00008130B1F08230A1F1DF91CF911F910F910E
:102C1000FF90EF900895853709F44CC008F43DC04B
:102C20009CE7980F903780F78F770E94DA0F49C0A2
:102C30000E5F1F4FFE01849190E2980F983060F470
:102C40008770FE2D01C0FF0F8A95EAF78F2F0E9433
:102C5000CA180E94021902C00E94310F8F2D8150A4
:102C600030F2EFE9FFE03197F1F700C00000F7CF55
:102C70000E5F1F4FFE01849190E2980F983050F440
:102C80008770FE2D01C0FF0F8A95EAF78F2F0E94F3
:102C9000D018DFCF0E94DA0FE1CF0E5F1F4FFE0189
:102CA000C491C150D8F28FE99FE00197F1F700C0BD
:102CB0000000F7CF0E5F1F4FFE01F490CFCF0E94B0
:102CC000310F8E01CBCF08950C9463160E946416C9
:102CD0006093BA017093BB018093BC019093BD01D6
:102CE0000C949B1208950C9466160F931F930091F9
:102CF000BA011091BB012091BC013091BD01602B44
:102D0000712B822B932B1F910F910C9466160F93AE
:102D10001F930091BA011091BB012091BC01309129
:102D2000BD0160237123822393231F910F910C9483
:102D300066160F931F930091BA011091BB01209169
:102D4000BC013091BD0160277127822793271F9115
:102D50000F910C9466160C9463160C94AB160E949B
:102D6000AD166093B6017093B7018093B80190934C
:102D7000B9010C949B1260E070E0CB010C94AF168B
:102D80000F931F9341E050E060E070E08A019B01E7
:102D900004C0000F111F221F331F8A95D2F7C901EB
:102DA000B8011F910F910C94AF160F931F9341E040
:102DB00050E060E070E004C0440F551F661F771FAD
:102DC0008A95D2F78091B6019091B701A091B80190
:102DD000B091B9018A019B01082B192B2A2B3B2B9F
:102DE000C901B8011F910F910C94AF160F931F9357
:102DF00041E050E060E070E004C0440F551F661FE2
:102E0000771F8A95D2F7CB01BA01609570958095AE
:102E100090950091B6011091B7012091B8013091C1
:102E2000B90160237123822393231F910F910C9486
:102E3000AF160F931F9341E050E060E070E004C0D4
:102E4000440F551F661F771F8A95D2F78091B601F0
:102E50009091B701A091B801B091B9018A019B018D
:102E6000082719272A273B27C901B8011F910F916D
:102E70000C94AF160F931F930091B6011091B701F8
:102E80002091B8013091B901602B712B822B932BCB
:102E90001F910F910C94AF160F931F930091B601E1
:102EA0001091B7012091B8013091B90160237123CD
:102EB000822393231F910F910C94AF160F931F93AE
:102EC0000091B6011091B7012091B8013091B9017C
:102ED00060277127822793271F910F910C94AF16BB
:102EE00008952EE0929F800D1124982F977041E055
:102EF00001C0440F9A95EAF786958695869595E0E8
:102F0000899FF0011124E757FE4F90E080E070E0C8
:102F10005191DF0111979B01082E02C0369527952C
:102F20000A94E2F7217021952527242325272C9345
:102F300001968530910561F708952EE0929F800DEE
:102F40001124982F977086958695869525E0829F07
:102F5000F0011124E757FE4F50E040E080E021915E
:102F600030E0092E02C0369527950A94E2F72170C9
:102F70003327042E01C0220F0A94EAF7822B4F5FF9
:102F80005F4F4530510559F70895BF92CF92DF92B8
:102F9000EF92FF920F931F93CF93DF938C01C0901A
:102FA000B601D090B701E090B801F090B9018091DE
:102FB000BA019091BB01A091BC01B091BD01C82A9A
:102FC000D92AEA2AFB2ACFE1D0E0BC2ED701C601DC
:102FD0000C2E04C0B695A795979587950A94D2F7BD
:102FE00080FD0EC0219788F7B12C8B2DDF91CF91FA
:102FF0001F910F91FF90EF90DF90CF90BF900895B9
:10300000B8018C2F0E94F40A019761F3EECFCF93A1
:10301000DF93EC010E94C517BE01DF91CF910C94A4
:10302000F40A1F93CF93DF93EB0190915001992302
:1030300031F0CB01DF91CF911F910C9407188823B9
:1030400079F0CB010E94C517182F682FCE010E947E
:103050007117BE01812FDF91CF911F910C94F40A5B
:10306000CB010E949D17182FF4CF682F809100018B
:10307000909101010C94AF1A682F809100019091FA
:1030800001010C94BA1A80910001909101010C94F5
:10309000C51A0E945C1B2091C1013091C2018217A8
:1030A000930778F00E945C1B2091C1013091C2010E
:1030B000821B930B9C0181E0243F314008F480E0A7
:1030C00008950E945C1B2091C1013091C20120959E
:1030D0003095280F391FEFCF8091C00185958595D8
:1030E000859508958091C001877008950E945C1BAA
:1030F0002091BE013091BF0182179307B0F00E946A
:103100005C1B2091BE013091BF01821B930B843F59
:10311000914018F480E0817008958091C00182FB95
:10312000882780F991E08927F6CF0E945C1B2091C7
:10313000BE013091BF0120953095820F931FE7CFDC
:103140009091C001977081E009F480E0089580912A
:10315000E60108959091E601892B8093E601089598
:1031600080959091E60198239093E601089510923E
:10317000E60108959091E501892B8093E50108957A
:1031800080959091E50198239093E5010895109220
:10319000E50108959091E401892B8093E40108955D
:1031A00080959091E40198239093E4010895109202
:1031B000E40108958091C301089508950C94DD18E9
:1031C000CF93C82F8091C3018C1761F00E945C1BC4
:1031D0009093C2018093C101C093C3018C2FCF9102
:1031E0000C94DE18CF9108958091C301882349F093
:1031F0001092C3011092C2011092C10180E00C94A0
:10320000DE180895E0910001F09101018091E6013E
:103210008083E0910001F091010180819091E501AE
:10322000892B8083E0910001F091010180819091D0
:10323000E401892B80838091C301882321F10E94BE
:103240004918882371F08091E70180FF08C088E465
:1032500093E09F938F930E941F080F900F900E94FE
:10326000F418E0910001F091010180819091C30177
:10327000892B808380910001909101010E94291A7D
:1032800081110E94F41880910001909101010C9429
:103290005C0D08950C94491998E0899F90011124C0
:1032A000622B6093C0010E94D5160E945C1B909314
:1032B000BF018093BE018091C0018595859585955C
:1032C0000C944A191092C0011092BF011092BE01D5
:1032D00080E00C944A199091C001809589238093D5
:1032E000C001282F277071F4282F082E000C330BF3
:1032F0009217130639F08595859585950E94F616E7
:103300000C946219089590932D0180932C010895D7
:10331000829590E09C01220F331F220F331F2C7CDB
:1033200095958795959587958373282B30E0C901EE
:10333000880F991F8A7A359527952575822B0895D0
:10334000CF93DF93D92F0E948819C82F8D2F0E9409
:1033500088199C2FDF91CF91089590E080E00E9422
:10336000702B21E08D3E9E4F09F020E0822F0895C2
:1033700082E090E00C94682B83E090E00C94682B42
:1033800084E090E00C94682B682F84E090E00C942B
:10339000762BAB01BC018FE090E00C94882BAB0145
:1033A000BC0183E190E00C94882B60E070E0CB01DD
:1033B0000C94CF1960E070E0CB010E94C9190C9405
:1033C000D5196DEE7EEF90E080E00E94942B60E0D6
:1033D00082E090E00E94762B60E083E090E00E9423
:1033E000762B1092BA011092BB011092BC01109280
:1033F000BD0160E084E090E00E94762B60E085E013
:1034000090E00E94762B60E086E090E00E94762BB0
:103410006FEF87E090E00E94762B40E050E0BA0129
:1034200088E090E00E94882B60E08DE090E00E94B0
:10343000762B40E050E0BA0188E190E00E94882BB2
:1034400060E087E190E00E94762B0C94DA190C94EE
:10345000E119FC01329680911201882321F08091BC
:1034600021029EE187FF96E080E0915008F40895E4
:1034700021912223D1F38F5FF8CF9C01FC0132967A
:103480009FEF80E04191461751F09F3F19F44111A1
:1034900001C0982F8F5F8630A9F79F3F09F40895E8
:1034A000290F311D97FD3A95F90162830895FC01BA
:1034B000329608962191261303C0DF0111971C92C2
:1034C000E817F907B9F70895E62FE695E695E6952A
:1034D000EE3170F4E80FF92FF11D677021E030E054
:1034E00001C0220F6A95EAF78281822B82830895B8
:1034F0008091E70180FF0CC01F926F9388E793E0F3
:103500009F938F930E941F080F900F900F900F9022
:103510000895E62FE695E695E695EE3178F4E80F06
:10352000F92FF11D677021E030E001C0220F6A958C
:10353000EAF7209582812823228308958091E7016C
:1035400080FF0CC01F926F938AE593E09F938F9347
:103550000E941F080F900F900F900F9008952091D8
:103560001201222329F02091210227FD0C94641AD4
:103570000C943D1A20911201222329F0209121025E
:1035800027FD0C94891A0C94571AFC0132968091ED
:103590001201882351F08091210287FF06C08EE13D
:1035A000DF011D928A95E9F7089586E0F9CF089525
:1035B00008950C94D81A0E94D91A80912702843059
:1035C00049F11092E80188E190E020E40FB6F89408
:1035D000A895809360000FBE2093600080E00E9459
:1035E0004A090E94D91A83B7817F846083BF83B759
:1035F000816083BF7894889583B78E7F83BF0FB631
:10360000F894A89580916000886180936000109282
:1036100060000FBE08950895CF930E94D71A0E94AC
:103620002C080E940B1BC0E08C2F0E949408892B51
:1036300031F4CF5FC530C1F780E0CF91089581E0CC
:10364000FCCF08950C94211B0E94B1120E94500DD2
:103650000E944A090C94221B1F921FB61F9211242C
:103660008F939F93AF93BF938091E801811113C013
:1036700080911D0290911E02A0911F02B091200224
:103680004196A11DB11D80931D0290931E02A0932F
:103690001F02B0932002BF91AF919F918F911F9015
:1036A0001FBE1F90189582E084BD93E095BD9AEFF0
:1036B00097BD80936E0008952FB7F89480911D02F6
:1036C00090911E02A0911F02B09120022FBF089579
:1036D0002FB7F89460911D0270911E0280911F0215
:1036E000909120022FBF0895CF92DF92EF92FF9228
:1036F0000F931F932FB7F89440911D0250911E0213
:1037000060911F02709120022FBF6A017B01EE249D
:10371000FF248C0130E020E0C016D106E206F3065B
:1037200050F0481B590BCA011F910F91FF90EF9069
:10373000DF90CF90089541505109F3CF78941F92B4
:103740001FB61F9211248F939F93AF93BF938091C5
:103750001D0290911E02A0911F02B09120020196BD
:10376000A11DB11D80931D0290931E02A0931F0204
:10377000B0932002BF91AF919F918F911F901FBE78
:103780001F90189587E797E79093010880930008AA
:1037900088E19AE00FB6F894A895809360000FBE78
:1037A00090936000FFCF0E94AD19811102C00E946A
:1037B000271A0E94B8198093E7010E94C01990E06F
:1037C00090932202809321020E94BC19682F70E01E
:1037D00090E080E00C9473168091EC0180FF12C0A1
:1037E0006091050185E0689FB0011124759567958A
:1037F0007595679560387105A8F561157105A1F19A
:10380000862F089581FF09C06091050185E0689FBA
:10381000B001112475956795EDCF6091050182FD8A
:103820000AC08091EB018823D1F09091040160914E
:103830000501891728F085E0689FB0011124DACFCF
:10384000869FB001112485E0869F9001879F300DEF
:103850001124692F70E0C9010E943A2BCBCF65E09B
:1038600070E0CECF8FE7089581E008958091EC015C
:1038700080FF0CC06091030170E0759567957595A8
:1038800067956115710549F1862F089581FF06C07E
:103890006091030170E075956795F3CF6091030126
:1038A00082FD0BC09091EB019923A1F06091020180
:1038B00080910301961738F0682F70E06038710529
:1038C00000F38FE70895899FC001112470E00E94E2
:1038D0003A2BF4CF61E070E0D7CF81E00895803FCC
:1038E00031F40E94EC1B81958093F0010895813F93
:1038F00019F40E94EC1BF8CF823F31F40E94EC1BBC
:1039000081958093EF010895833F19F40E94EC1B89
:10391000F8CF893F29F40E94361C8093F101089565
:103920008A3F21F40E94361C8195F7CF8B3F31F4FA
:103930000E94361C81958093F20108958C3F19F402
:103940000E94361CF8CF843F31F48091EE018160F3
:103950008093EE010895853F21F48091EE0182600D
:10396000F7CF863F21F48091EE018460F1CF873F4D
:1039700021F48091EE018860EBCF883F21F48091A3
:10398000EE018061E5CF8D3F31F48091EC018160E3
:103990008093EC0108958E3F21F48091EC018260C8
:1039A000F7CF8F3FB9F78091EC018460F1CF909110
:1039B000EF01803F41F48091F00187FD1092F0010A
:1039C000992371F00895813F29F48091F001181630
:1039D000ACF3F6CF823F81F497FFF2CF1092EF0164
:1039E0008091F0019091F101892B9091F201892B46
:1039F00049F71092EB010895833F19F4191674F3F7
:103A0000DFCF893F39F48091F1011816CCF610927E
:103A1000F101D6CF8A3F29F48091F10187FFD0CF01
:103A2000F6CF8B3F39F48091F20187FFC9CF109216
:103A3000F201C6CF8C3F29F48091F2011816BCF335
:103A4000BFCF843F31F48091EE018E7F8093EE01F1
:103A5000B7CF853F21F48091EE018D7FF7CF863F70
:103A600021F48091EE018B7FF1CF873F21F480918B
:103A7000EE01877FEBCF883F21F48091EE018F7EAE
:103A8000E5CF8D3F31F48091EC018E7F8093EC0186
:103A900097CF8E3F21F48091EC018D7FF7CF8F3F40
:103AA00009F08ECF8091EC018B7FF0CF8091E70100
:103AB00083FF7EC08DEB93E00E9486078091EE012C
:103AC0001F928F9388EB93E09F938F930E941F0820
:103AD00086EB93E00E9486078091EF01282F082E45
:103AE000000C330B3F938F9383EB93E09F938F9363
:103AF0000E941F0881EB93E00E9486078091F001ED
:103B0000282F082E000C330B3F938F938EEA93E0FF
:103B10009F938F930E941F088CEA93E00E94860770
:103B20008091F101282F082E000C330B3F938F93C7
:103B300089EA93E09F938F930E941F0887EA93E09E
:103B40000E9486078091F201282F082E000C330B6B
:103B50003F938F9384EA93E09F938F930E941F0873
:103B600081EA93E00E9486078091EB011F928F9378
:103B70008EE993E09F938F930E941F088CE993E056
:103B80000E9486078091EC011F928F9389E993E050
:103B90009F938F930E941F0886E993E00E948607F7
:103BA0008DB79EB74C960FB6F8949EBF0FBE8DBFD3
:103BB0008DEE91E00E94B70D0E945C1B9093EA018C
:103BC0008093E90108951F93CF93DF938091E901DA
:103BD0009091EA010E94741BAC019091EB0120913D
:103BE000060130E0911106C0209107018AE0289F6C
:103BF000900111244217530778F02091EF01C091F2
:103C0000F001D091F1011091F201211109C08C2F26
:103C10008D2B812B09F05DC0DF91CF911F9108950D
:103C20009F3F19F09F5F9093EB01121624F40E94BE
:103C3000EC1B8093EF018091EF0187FF05C00E948C
:103C4000EC1B81958093EF011C1624F40E94EC1B61
:103C50008093F0018091F00187FF05C00E94EC1B6A
:103C600081958093F0014091EF01442379F03091E8
:103C7000F001332359F025EB4203A00111245093A6
:103C8000EF013203900111243093F0011D1624F44A
:103C90000E94361C8093F1018091F10187FF05C0DD
:103CA0000E94361C81958093F101111624F40E9424
:103CB000361C8093F2018091F20187FF05C00E94BB
:103CC000361C81958093F201DF91CF911F910C9466
:103CD000561D9F3F09F0A6CFB7CF86E0EDEEF1E08D
:103CE000DF011D928A95E9F71092EB011092EC0129
:103CF000089580EE95E00E9486071F9281E08F93E1
:103D00001F9285E08F9382E995E09F938F930E94A5
:103D10001F080F900F900F900F900F900F90089525
:103D2000833009F445C028F4813061F0823049F1D4
:103D30000895853009F46AC008F451C0863009F44A
:103D40007CC0089580910701482F460F5527551FC5
:103D50004F3F510594F4680F60930701809107016C
:103D60001F928F938BEC94E09F938F930E941F0878
:103D70000F900F900F900F9008958FEF8093070191
:103D8000EDCF80910601482F460F5527551F4F3F15
:103D9000510554F4680F60930601809106011F924B
:103DA0008F9389EB94E0E0CF8FEF80930601F5CFFE
:103DB00080910501482F460F5527551F4F3F51054C
:103DC00054F4680F60930501809105011F928F9351
:103DD00086EA94E0C9CF8FEF80930501F5CF8091FB
:103DE0000401482F460F5527551F4F3F510554F4E6
:103DF000680F60930401809104011F928F9381E901
:103E000094E0B2CF8FEF80930401F5CF809103014E
:103E1000482F460F5527551F4F3F510554F4680F43
:103E200060930301809103011F928F9388E794E0D0
:103E30009BCF8FEF80930301F5CF80910201482F34
:103E4000460F5527551F4F3F510554F4680F609397
:103E50000201809102011F928F938DE594E084CF3F
:103E60008FEF80930201F5CF8330C9F128F48130C0
:103E700061F0823019F10895853009F452C008F4D8
:103E80003FC0863009F45EC008958091070168172D
:103E900090F4861B80930701809107011F928F93F6
:103EA0008EE494E09F938F930E941F080F900F90D1
:103EB0000F900F90089510920701EECF80910601A8
:103EC000681750F4861B80930601809106011F92AB
:103ED0008F938CE394E0E6CF10920601F6CF8091A9
:103EE0000501681750F4861B809305018091050138
:103EF0001F928F9389E294E0D5CF10920501F6CFFF
:103F000080910401681750F4861B8093040180910E
:103F100004011F928F9384E194E0C4CF10920401B6
:103F2000F6CF80910301681750F4861B809303013C
:103F3000809103011F928F938BEF93E0B3CF109288
:103F40000301F6CF80910201681750F4861B80931D
:103F50000201809102011F928F9380EE93E0A2CF25
:103F600010920201F6CFCF93C82F1F928F9385EE48
:103F700096E09F938F930E941F0861E070E080E0BD
:103F800090E004C0660F771F881F991FCA95D2F76B
:103F90000E9473160F900F900F900F90CF910C947A
:103FA000B112CF93EBEFE80FEF3308F026C2F0E049
:103FB000EF50F44D0C944E2B85E59CE00E94860753
:103FC00081E99BE00E9486070E94BC191F928F9393
:103FD0008EE89BE09F938F930E941F088CE89BE0E4
:103FE0000E9486070E94B819C82F89E79BE00E94AB
:103FF00086071F92CF9384E79BE09F938F930E9445
:104000001F0882E79BE00E94860788E69BE00E94EB
:1040100086078C2F81701F928F9385E69BE09F937C
:104020008F930E941F0883E69BE00E94860789E524
:104030009BE00E948607C1FB882780F91F928F931F
:1040400086E59BE09F938F930E941F0884E59BE089
:104050000E94860788E49BE00E948607C2FB8827AF
:1040600080F91F928F9385E49BE09F938F930E942A
:104070001F0883E49BE00E9486078AE39BE00E947E
:104080008607C3FBCC27C0F91F92CF9387E39BE041
:104090009F938F930E941F0885E39BE00E948607F1
:1040A0000E94C019C82F81E29BE00E9486071F92E0
:1040B000CF938CE19BE09F938F930E941F088AE12E
:1040C0009BE00E94860781E09BE00E9486078C2F80
:1040D00081701F928F938EEF9AE09F938F930E942F
:1040E0001F088DB79EB780960FB6F8949EBF0FBE7F
:1040F0008DBF8CEF9AE00E94860785EE9AE00E94C1
:104100008607C1FB882780F91F928F9382EE9AE081
:104110009F938F930E941F0880EE9AE00E9486076B
:104120008EEC9AE00E948607C2FB882780F91F92D6
:104130008F938BEC9AE09F938F930E941F0889ECDA
:104140009AE00E94860787EB9AE00E948607C3FBED
:10415000882780F91F928F9384EB9AE09F938F9327
:104160000E941F0882EB9AE00E94860788EA9AE084
:104170000E948607C4FB882780F91F928F9385EAE7
:104180009AE09F938F930E941F0883EA9AE00E940F
:10419000860781E99AE00E948607C5FB882780F997
:1041A0001F928F938EE89AE09F938F930E941F082F
:1041B0008CE89AE00E94860780E79AE00E948607D2
:1041C000C6FB882780F91F928F938DE69AE09F9314
:1041D0008F930E941F088BE69AE00E94860783E671
:1041E0009AE00E948607C7FBCC27C0F91F92CF93A5
:1041F00080E69AE09F938F930E941F088EE59AE0D5
:104200000E9486078DB79EB74C960FB6F8949EBF56
:104210000FBE8DBF81E01CC084E49CE00E94860735
:104220000E94271AF7CF8CEA98E00E948607F2CF07
:104230008091E701807F8093E70185E898E00E9404
:10424000860780E49CE00E94860781E08093F40169
:10425000CF9108950E94B11284E29CE00E948607EB
:104260009FEF23ED80E3915020408040E1F700C0B4
:1042700000000E94C21BCECF9091E701892F8E7F54
:1042800090FF81608093E70180FF03C088E19CE09C
:10429000CCCF8BE09CE00E9486078091E701817F74
:1042A0008093E701B7CF9091E701892F8D7F91FF30
:1042B00082608093E70181FF08C08EEF9BE00E943F
:1042C00086078091E7018160EBCF80EF9BE0ADCF67
:1042D0009091E701892F8B7F92FF84608093E701A3
:1042E00082FF03C081EE9BE0EACF81ED9BE09DCF92
:1042F0009091E701892F877F93FF88608093E70182
:1043000083FF03C085EC9BE0DACF88EB9BE08DCF89
:1043100086E798E00E9486078AE498E00E94860774
:1043200085E098E00E94860781ED97E00E9486076D
:1043300086E997E00E9486078BE697E076CF8DE5C9
:1043400097E00E9486070E94500D1F928F9383E48E
:1043500097E09F938F930E941F08809112011F92F4
:104360008F938CE297E09F938F930E941F08809118
:1043700019021F928F9389E197E09F938F930E9478
:104380001F088091210287FB882780F91F928F9355
:1043900081E097E09F938F930E941F080E94681B03
:1043A0009F938F937F936F938AEE96E09F938F9363
:1043B0000E941F088DB79EB746960FB6F8949EBF11
:1043C0000FBE8DBF27CF0E94B11290912102892F7D
:1043D00097FB87F980588093210287FF03C08EEAFC
:1043E0009BE023CF83EA9BE020CF80E00E94B31FB5
:1043F00011CF8953FBCF8D51F9CF81EA9BE00E9409
:10440000860780E025CF80E008950C9403228E512A
:104410008A3030F4E82FF0E0ED5EFE4F80810895A1
:1044200080E00895CF93C82F8091F4018130C1F0CE
:10443000882339F0823009F447C01092F40180E0FB
:104440000DC00E94A7188232D1F78C2F0E94032240
:1044500081111BC08C2F0E94D11F8170CF910895B4
:104460000E94A718823289F38C2F0E9405228111A5
:104470001BC0C431D9F060F4CB3071F0C031D1F041
:104480008BED96E00E94860713C081E090E0E5CFB7
:10449000C93261F0C833A1F785E898E00E94860729
:1044A00081EE96E00E94860781E0D7CF1092F4015A
:1044B00080E0D3CF0E94791E8DED96E00E948607A2
:1044C00082E08093F401F0CFC432C8F4CE3108F01A
:1044D000BEC0CB30E1F040F4C73009F4CCC08FE768
:1044E00095E00E94860726C0C331C1F1C431B9F7F7
:1044F0008091F301882351F11092F3010AC0CB346B
:1045000009F4B7C0C8F4C93299F3C83341F70E941F
:10451000791E8091F301882309F4C4C01F928F9300
:1045200089E795E09F938F930E941F080F900F904B
:104530000F900F9081E092CFC13509F494C0C2353D
:1045400009F48BC0CE3459F66AE08EC08EE895E04F
:104550000E94860781E08093F40180CF88E695E091
:104560000E94860786E595E00E94860780910701F4
:104570001F928F9383E595E09F938F930E941F086E
:1045800081E595E00E9486078FE395E00E9486070B
:10459000809106011F928F938CE395E09F938F93F8
:1045A0000E941F088AE395E00E9486078BE295E04F
:1045B0000E948607809105011F928F9388E295E003
:1045C0009F938F930E941F0886E295E00E948607C2
:1045D00085E195E00E948607809104011F928F93E8
:1045E00082E195E09F938F930E941F0880E195E000
:1045F0000E9486078BEF94E00E948607809103015A
:104600001F928F9388EF94E09F938F930E941F08CF
:1046100086EF94E00E9486078FED94E00E94860763
:10462000809102011F928F938CED94E09F938F9362
:104630000E941F088AED94E00E9486078DB79EB7FE
:1046400048960FB6F8949EBF0FBE8DBF62CF8C2FD9
:104650000E9407228093F3015CCF61E08091F30117
:104660000E94901E56CF61E08091F3010E94341F9A
:1046700050CF6AE0F3CF8EE18093070182E380930D
:1046800006018AE08093050184E18093040188E0BB
:104690008093030188E28093020181E895E00E9403
:1046A000860737CF86E795E01CCF809118020895E2
:1046B0009FB7F8941092F7019FBF90912702943012
:1046C00009F048C02091E9002F703091EC00932F41
:1046D000917030FD90E8922B23E02093E900209127
:1046E000EB0020FF34C02091EE0027FF30C0209166
:1046F000F501222321F02091E80025FF28C0109227
:10470000F50126E03091E80035FF14C08093F100F8
:104710008091E80085FD27C08091E80080FFFCCFF4
:104720008091E8008E778093E8009F709093E90075
:1047300080E0089530912702343049F43091EB0045
:1047400035FD05C0215041F481E08093F5019F7053
:104750009093E9008FEF0895EFE9FFE03197F1F7CB
:1047600000C00000CFCF8FB7F89421E02093F7016D
:104770008FBFDBCF0F931F93CF93DF9300D00F92A8
:10478000CDB7DEB78C010E948126823011F08430D3
:1047900021F584E089831B830A8382E08093E9000A
:1047A0008FEF9091E800815095FD06C095ED9A95A8
:1047B000F1F700008111F5CF8091E80085FF0DC071
:1047C00050E040E063E070E0CE0101960E949E263A
:1047D0008091E8008E778093E8000F900F900F9003
:1047E000DF91CF911F910F910895CF93DF9300D068
:1047F0000F92CDB7DEB720912702243031F523E0A8
:104800002983805891099B838A8382E08093E90001
:104810008FEF9091E800815095FD06C095ED9A9537
:10482000F1F700008111F5CF8091E80085FF0DC000
:1048300050E040E063E070E0CE0101960E949E26C9
:104840008091E8008E778093E8000F900F900F9092
:10485000DF91CF910895CF93DF93EC010E948126E1
:10486000823011F08430F9F482E08093E9008FEF18
:104870009091E800815095FD06C095ED9A95F1F76D
:1048800000008111F5CF8091E80085FF0CC050E059
:1048900040E066E070E0CE010E949E268091E80034
:1048A0008E778093E800DF91CF910895CF93DF93C7
:1048B000EC010E948126823011F08430B9F580919C
:1048C00012018823B1F18091210287FF32C060E29A
:1048D00082E08093E9008FEF9091E800815095FD90
:1048E00006C095ED9A95F1F700008111F5CF809102
:1048F000E80085FF1BC08091120170E050E040E0AD
:10490000811104C050E040E068E070E0CE010E94F8
:104910009E268091E8008E778093E80080E2FE0179
:10492000A8EFB1E001900D928A95E1F7DF91CF9168
:10493000089568E081E0CDCF85E89CE00E9486077D
:1049400080912602811109C00E942E280E948B2886
:104950008091E20084608093E200089581E89CE009
:104960000E9486071092260208958DE79CE00C9421
:10497000860789E79CE00C94860785E79CE00E9407
:1049800086070C94241B2091F6012F5F822F62E38F
:104990000E942E2B992319F02093F601089510926E
:1049A000F6018091F7018823F1F08091270284308D
:1049B000C1F49091E9009F702091EC00822F8170EA
:1049C00020FD80E8892B93E09093E9009091EB0023
:1049D00090FF04C09091EE0097FD08C08F70809307
:1049E000E9001092F70108951092F1009091E8000B
:1049F00095FDFACF9091E80090FFF0CF9091E800FC
:104A00009E779093E800EACF42E061EC81E00E945B
:104A1000AA2742E261EC82E00E94AA2742E261EC0E
:104A200083E00C94AA2780912902833009F45FC0A7
:104A300030F48130C1F1823009F49BC008958A308E
:104A400009F487C08B3009F46DC0893009F04EC07D
:104A500080912802813209F049C080912C02909106
:104A60002D02029708F042C08091E800877F809372
:104A7000E8008091E80082FF35C09091F3008091BA
:104A8000F200029729F48091F1008B7F813021F4AC
:104A90008091F100809318028091E8008B778093D9
:104AA000E8000C94DE2780912802813AF9F4809185
:104AB000E800877F8093E80080912C0290912D027E
:104AC000892B61F460E288EF91E070E00E94ED26AE
:104AD0008091E8008B778093E800089560E090E093
:104AE00080E0F3CF809127028111C3CF0895809198
:104AF0002802813AD9F780912C0290912D02892BBE
:104B0000A9F78091E800877F8093E8008091E80012
:104B100080FFFCCF809112018093F1008091E8002A
:104B20008E77BDCF80912802813201F780912C02CF
:104B300090912D02892BD1F68091E800877F809398
:104B4000E8000E94DE2780912A02809312010C94D3
:104B5000B11280912802813249F68091E800877F66
:104B60008093E8000E94DE2780912B028093190237
:104B7000089580912802813A09F0B8CF8091E80029
:104B8000877F8093E8008091E80080FFFCCF8091D0
:104B90001902C2CF84B7877F84BF0FB6F894A89557
:104BA00080916000886180936000109260000FBE69
:104BB00080E880936100109261000E94FF0D0E94C6
:104BC0002E280E948B288091E20084608093E2006E
:104BD00088E593E20E94831978940E94132B0E9427
:104BE000070E88E091E00E944B0D84E69CE00E9455
:104BF000860780912702853019F00E94370EF9CF81
:104C000080E69CE00E9486070E94DB1A80912502C4
:104C1000882379F30E940C1B882359F30E9488266D
:104C2000E8CF0C941326292F33272330310521F1A7
:104C300068F42130310509F449C02230310509F406
:104C40004AC090E080E030E020E029C02132310508
:104C500081F122323105A9F76330710590F7FB012C
:104C6000EE0FFF1FE05EFE4F20813181635E7E4FBD
:104C7000FB01808190E013C099278130910599F064
:104C8000009741F08230910589F00397D1F6E9E869
:104C9000FCE002C0EFECFCE0849190E09F01FA019F
:104CA000318320830895EFEAFCE0F6CFEFE8FCE0E3
:104CB000F3CF6330710528F6660F771FFB01EA5DBD
:104CC000FE4F2081318189E090E0E9CF82E190E0E0
:104CD0002EE23DE0E4CF8BE590E023ED3CE0DFCF3A
:104CE0000895CF93C82F0E947026C0931A02CF91C7
:104CF000089580912702843011F482E0089581E0C4
:104D0000089580911A02811102C00C9479260895A9
:104D100080E189BD82E189BD09B400FEFDCF8091AB
:104D2000D8008F7D8093D8008091E00082608093CE
:104D3000E0008091E00081FDFCCF0895AF92BF922A
:104D4000CF92DF92FF920F931F93CF93DF936C016B
:104D5000EB018A010E94FD27F82E811123C0011565
:104D6000110539F0F80180819181C81BD90BC80E5B
:104D7000D91EB12CA12C2097A9F08091E80085FDC7
:104D800022C08091E8008E778093E800011511051C
:104D9000A1F0F80180819181A80EB91EB182A08294
:104DA00085E0F82E8F2DDF91CF911F910F91FF900D
:104DB000DF90CF90BF90AF9008950E94FD27882389
:104DC000D1F2F82EEFCFF60181916F018093F100BF
:104DD0002197FFEFAF1ABF0ACECFFC0180912E02C0
:104DE00090912F0286179707A0F06115710529F49D
:104DF0009091E8009E779093E80090E0611571052E
:104E000051F4911108C08091E80082FF34C080E025
:104E10000895BC01F2CF809127028823C1F185302B
:104E2000C1F18091E80083FD30C08091E80082FDEF
:104E3000EACF8091E80080FFE1CF8091F3002091DC
:104E4000F200382F6115710519F02830310558F03E
:104E500091E02830310509F090E02091E8002E77AC
:104E60002093E800CBCF81918093F10061507109CC
:104E70002F5F3F4FE7CF80912702882341F0853095
:104E800041F08091E80083FFBECF81E0089582E089
:104E9000089583E00895FC0180912E0290912F02E5
:104EA00086179707A0F06115710529F48091E80035
:104EB0008E778093E80090E06115710551F49111AF
:104EC00008C08091E80082FF35C080E00895BC01F1
:104ED000F2CF809127028823C9F18530C9F18091F2
:104EE000E80083FD31C08091E80082FDEACF809127
:104EF000E80080FFE1CF8091F3002091F200382F8D
:104F00006115710519F02830310558F091E028300D
:104F1000310509F090E08091E8008E778093E800F9
:104F2000CBCF84918093F1003196615071092F5F4E
:104F30003F4FE6CF80912702882341F0853041F032
:104F40008091E80083FFBDCF81E0089582E008955D
:104F500083E00895982F973028F08F708093E900B0
:104F600081E008959093E900242F762F50E0981760
:104F700031F07091EC002091ED005091F00021FD96
:104F800002C09F5FE8CF3091EB003E7F3093EB0093
:104F90003091ED003D7F3093ED003091EB003160BA
:104FA0003093EB007093EC002093ED005093F000F1
:104FB0002091EE0027FDE5CF80E008958091280242
:104FC00087FF13C08091E80082FF06C08091E8004F
:104FD0008B778093E80004C0809127028111F2CF83
:104FE0000895809127028823D9F38091E80080FFFB
:104FF000F8CF8091E8008E77ECCF2091E4003091DB
:10500000E50095E6A9012091EC00822F817020FF38
:1050100006C08091E80080FF06C080E008952091DE
:10502000E80022FD1AC080912702882389F085308C
:1050300089F08091EB0085FD0FC02091E400309154
:10504000E50042175307F9F29150E1F684E0089524
:1050500082E0089583E0089581E008950E949C28ED
:105060000E94A428E0EEF0E0808181608083E8ED7A
:10507000F0E080818F77808319BCA7EDB0E08C9140
:105080008E7F8C9380818F7E80831092260208957C
:105090000F931F93CF93DF930E949C280E94A42814
:1050A000C8EDD0E088818F77888388818068888385
:1050B00088818F7D888319BC109227021092230269
:1050C000109225021092240200EE10E0F801808177
:1050D0008B7F808388818160888342E060E080E00C
:1050E0000E94AA27E1EEF0E080818E7F8083E2EECD
:1050F000F0E0808181608083808188608083F80116
:1051000080818E7F8083888180618883DF91CF91C9
:105110001F910F910895E8EDF0E080818F7E8083EC
:10512000E7EDF0E080818160808384E082BF81E0F0
:10513000809326020C944828E8EDF0E080818E7F71
:1051400080831092E20008951092DA001092E1003C
:1051500008951F920F920FB60F9211242F933F9331
:105160004F935F936F937F938F939F93AF93BF936F
:10517000EF93FF938091E10082FF0BC08091E200EA
:1051800082FF07C08091E1008B7F8093E1000E9445
:10519000C3248091DA0080FF19C08091D80080FF7D
:1051A00015C08091DA008E7F8093DA008091D9005B
:1051B00080FF96C080E189BD82E189BD09B400FE0F
:1051C000FDCF81E0809327020E949C248091E10022
:1051D00080FF19C08091E20080FF15C08091E2003D
:1051E0008E7F8093E2008091E20080618093E200F4
:1051F0008091D80080628093D80019BC85E08093AC
:1052000027020E94B9248091E10084FF2BC0809185
:10521000E20084FF27C080E189BD82E189BD89B5B4
:10522000982F917080FFFBCF8091D8008F7D809365
:10523000D8008091E1008F7E8093E1008091E200B0
:105240008F7E8093E2008091E20081608093E20093
:1052500080912302882309F449C084E080932702C7
:105260000E94BD248091E10083FF29C08091E2006B
:1052700083FF25C08091E100877F8093E10082E079
:1052800080932702109223028091E1008E7F809309
:10529000E1008091E2008E7F8093E2008091E20045
:1052A00080618093E20042E060E080E00E94AA27F3
:1052B0008091F00088608093F0000E94B524FF91F7
:1052C000EF91BF91AF919F918F917F916F915F917E
:1052D0004F913F912F910F900FBE0F901F901895F7
:1052E00019BC109227020E94AE2470CF8091E30077
:1052F00087FD93E090932702B3CF1F920F920FB6D2
:105300000F9211242F933F934F935F936F937F934B
:105310008F939F93AF93BF93CF93DF93EF93FF93BD
:10532000D091E900DF708091EC00C82FC17080FD42
:10533000C0E81092E9008091F000877F8093F00030
:1053400078940E94C1291092E9008091F000886051
:105350008093F000CD2BCF70C093E900FF91EF91C7
:10536000DF91CF91BF91AF919F918F917F916F917D
:105370005F914F913F912F910F900FBE0F901F9013
:1053800018951F93CF93DF93CDB7DEB7AA970FB6CB
:10539000F894DEBF0FBECDBF88E292E02091F1000D
:1053A000FC012193CF01F2E080339F07B9F70E94FF
:1053B00013258091E80083FF1EC1809128029091FF
:1053C00029029A3008F017C1E92FF0E0E05DF34DB3
:1053D0000C944E2B803899F0823809F00CC18091E2
:1053E0002C028F70873008F006C18093E90080910D
:1053F000EB0085FB882780F91092E90006C08091B8
:10540000240290912502911182609091E800977F8B
:105410009093E8008093F1001092F1008091E800F1
:105420008E77E5C0882309F4D3C0823009F0E3C049
:1054300080912A028111D6C080912C028F702FEFAB
:10544000280F263008F0D7C08093E9002091EB00A8
:1054500020FFC8C0933031F48091EB0080628093CC
:10546000EB00C0C09091EB0090619093EB0021E0C5
:1054700030E001C0220F8A95EAF72093EA001092EB
:10548000EA008091EB008860EACF8111B4C01091EE
:105490002A021F778091E3008078812B8093E300BC
:1054A0008091E800877F8093E8000E94DE2780914A
:1054B000E80080FFFCCF8091E30080688093E300E8
:1054C00082E0111183E08093270295C080588230DA
:1054D00008F091C080912A0290912B028C3D23E02C
:1054E0009207A1F583E08A838AE289834FB7F89413
:1054F000DE01139620E03EE051E2E32FF0E050930E
:105500005700E49120FF03C0E295EF703F5FEF701A
:105510008E2F90E0EA30C0F0C7968D939D932F5F59
:10552000243159F74FBF8091E800877F8093E800CE
:105530006AE270E0CE0101960E94ED268091E800BB
:105540008B778093E80057C0C096E7CF60912C021C
:1055500070912D02AE014F5F5F4F0E941126BC017A
:10556000892B09F448C09091E800977F9093E80058
:1055700089819A810E944B27E1CF8038E1F58091A3
:10558000E800877F8093E800809123028093F100F8
:1055900045CF811130C090912A02923060F5809100
:1055A000E800877F8093E800909323020E94DE2723
:1055B00080912302882311F084E005C08091E300EC
:1055C00087FDFACF81E0809327020E94042513C053
:1055D00080912A02813079F481E0933009F080E0F3
:1055E000809325021092E9008091E800877F8093E4
:1055F000E8000E94DE278091E80083FF0AC08091C6
:10560000E800877F8093E8008091EB0080628093C0
:10561000EB00AA960FB6F894DEBF0FBECDBFDF91A8
:10562000CF911F910895CF93809127028823A1F0F5
:10563000C091E900CF709091EC00892F817090FDAE
:1056400080E8C82B1092E9008091E80083FD0E9459
:10565000C129CF70C093E900CF910895991B79E0DB
:1056600004C0991F961708F0961B881F7A95C9F7F2
:105670008095089597FB072E16F4009407D077FDC8
:1056800009D00E94542B07FC05D03EF490958195DB
:105690009F4F0895709561957F4F0895EE0FFF1FFE
:1056A0000590F491E02D0994AA1BBB1B51E107C0A2
:1056B000AA1FBB1FA617B70710F0A61BB70B881FA2
:1056C000991F5A95A9F780959095BC01CD01089531
:1056D000F999FECF92BD81BDF89A992780B50895BA
:1056E000A8E1B0E042E050E00C949C2B262FF99901
:1056F000FECF92BD81BDF89A019700B4021639F031
:105700001FBA20BD0FB6F894FA9AF99A0FBE089501
:105710000396272F0E94772B0E94762B252F0E941D
:10572000772B242F0C94772B0196272F0E94772B11
:105730000C94762BDC01CB01FC01F999FECF06C05D
:10574000F2BDE1BDF89A319600B40D92415050403F
:10575000B8F70895F894FFCF2B0A370A3B0A3F0A9F
:10576000430A470A4B0A4F0A530A570A5B0A5F0A61
:10577000630A670A6B0A6F0A730A770A4D104D10A5
:10578000AC10AC10F3100F117A107A1051117A107E
:10579000E911E91154127A107A105D12F311F31124
:1057A000F311F311F311F311F311F311F311F311D9
:1057B000F311F311F311F311F311F31100120E129F
:1057C00015121C122612C012C012C912C912CB1215
:1057D000C912C912C912C012C012D012C912C912FC
:1057E000D0122A2118213C21DC1FFD21FD2113218B
:1057F000FD21FD216821FD217821E321FD21FD21ED
:10580000FD21FD219F21FD21FD218821FD21532125
:10581000FD21FD21FB21FB21FB21FB21FB21FB21A4
:10582000FB21FB21FB21F521FD212A210C21FD215A
:10583000FD21FD21FD21FD21FD21FD21FD21FD2178
:10584000FD21F521FD21FD211321FD21F921F92162
:10585000F921F921F921F921F921F921F921F5217C
:10586000EA29122AFB2A122AFB2A452A662AFB2A3F
:04587000BD2AC92A5A
:10587400C4012808140A321E552356242B24F52368
:10588400BA23010102030405060708090040C022E7
:0C589400220E620D400DE50CFE0C170DFD
:00000001FF
