:100000000C9454070C949B070C949B070C949B072F
:100010000C949B070C949B070C949B070C949B07D8
:100020000C949B070C949B070C945A2B0C942D2C2E
:100030000C946F1D0C949B070C949B070C949B07CE
:100040000C949B070C949B070C949B070C949B07A8
:100050000C949B070C94F01D0C949B070C949B072D
:100060000C949B070C949B070C949B070C949B0788
:100070000C949B070C949B070C949B070C949B0778
:100080000C949B070C949B070C949B070C949B0768
:100090000C949B070C949B070C949B070C949B0758
:1000A0000C949B070C949B070C949B070A0025302B
:1000B000313662003A200025303258000A722F6330
:1000C00020303132333435363738394142434445B4
:1000D000460A0035001E001F002000210022003EBD
:1000E000004600230024002500260027002D002BB9
:1000F0000014001A00090013000A002F0030000D40
:10010000000F0018001C0033002E00290004001509
:10011000001600170007004B004D000B00110008EF
:10012000000C0012003400E1001D001B0006001945
:100130000005004E004A000E00100036003700385F
:1001400000E500E00031000351E200E3002A004C2A
:100150000028002C000151025381008000E60000BD
:10016000003A003B003C003D003E00440045003F9B
:100170000040004100420043000000000000000079
:1001800000000000000000000000000B000D000E49
:10019000000F00000000000100000000000000004F
:1001A000000000000000005000510052004F00000D
:1001B000000000010000000000000000000000003E
:1001C000000000AD00AE00AC00AB00A800010001D3
:1001D0000000000100010001000100010001000118
:1001E0000001000100810080000100005C000000AF
:1001F00000000000000000000000000000000000FF
:1002000000000000000000000000000000000000EE
:10021000000000000000000000240025002600006F
:1002200000000001000000000000000000000000CD
:100230000000000000210022002300000000000157
:100240000000000000000000000000000000002787
:10025000001E001F0020000000010001000000013E
:100260000001000100010001000100010001000186
:10027000000000000001000000680069006A006BD7
:10028000006C006D006E006F0070007100720073F2
:10029000000000000000000000000000000000005E
:1002A000000000000000000000000000000000014D
:1002B00000490047004800390065000000000000C8
:1002C000000000000000000000000001000000002D
:1002D000000000000000000000000000000000001E
:1002E0000000000000010001000000010001000109
:1002F00000010001000100010001000100000000F8
:1003000000010044454255473A2064697361626CBC
:1003100065642E0A0044454255473A20656E616285
:100320006C65642E0A000A002530325820006B6587
:1003300079626F6172645F7265706F72743A2000E7
:100340000A0025303258006B6579626F6172645F14
:100350007365745F6C65643A20004F6E6573686FF7
:10036000743A2074696D656F75740A0064656C5F1A
:100370006B65795F6269743A2063616E27742064EB
:10038000656C3A20253032580A006164645F6B6501
:10039000795F6269743A2063616E277420616464D6
:1003A0003A20253032580A00290A002575002F000E
:1003B0002575005D280025640020002564002000CC
:1003C00025640020002564007C0025303258006D33
:1003D0006F7573656B6579205B62746E7C782079CC
:1003E000207620685D287265702F61636C293A2041
:1003F0005B006D6B5F776865656C5F74696D655FE9
:10040000746F5F6D6178203D2025640A006D6B5F1D
:10041000776865656C5F6D61785F73706565642092
:100420003D2025640A006D6B5F74696D655F746FB4
:100430005F6D6178203D2025640A006D6B5F6D6102
:10044000785F7370656564203D2025640A006D6BDC
:100450005F696E74657276616C203D2025640A00C8
:100460006D6B5F64656C6179203D2025640A006DC9
:100470006B5F776865656C5F74696D655F746F5FEE
:100480006D6178203D2025640A006D6B5F7768659B
:10049000656C5F6D61785F7370656564203D2025D4
:1004A000640A006D6B5F74696D655F746F5F6D6189
:1004B00078203D2025640A006D6B5F6D61785F7365
:1004C00070656564203D2025640A006D6B5F696E70
:1004D00074657276616C203D2025640A006D6B5F47
:1004E00064656C6179203D2025640A000A00257549
:1004F00000363A20776865656C5F74696D655F7476
:100500006F5F6D61783A20000A00257500353A204A
:10051000776865656C5F6D61785F73706565643A77
:1005200020000A00257500343A2074696D655F74F7
:100530006F5F6D61783A20000A00257500333A201C
:100540006D61785F73706565643A20000A002575F7
:1005500000323A20696E74657276616C286D732979
:100560003A20000A00257500313A2064656C6179F3
:10057000282A31306D73293A20000A092D2056614E
:100580006C756573202D0A004D3E004D25643E209C
:10059000003F007365742064656661756C740A00C1
:1005A000433E200077686572652064656C74613A2B
:1005B00020637572736F723D25642C2077686565C2
:1005C0006C3D25640A53656520687474703A2F2F5A
:1005D000656E2E77696B6970656469612E6F7267ED
:1005E0002F77696B692F4D6F7573655F6B657973D5
:1005F0000A000A092D204D6F7573656B6579202DF2
:100600000A4553432F713A09717569740A313A09E1
:1006100064656C6179282A31306D73290A323A0990
:10062000696E74657276616C286D73290A333A09B4
:100630006D61785F73706565640A343A0974696D39
:10064000655F746F5F6D61780A353A097768656533
:100650006C5F6D61785F73706565640A363A09771F
:100660006865656C5F74696D655F746F5F6D6178F7
:100670000A0A703A097072696E742076616C756549
:10068000730A643A097365742064656661756C74F5
:10069000730A75703A092B310A646F776E3A092D27
:1006A000310A706775703A092B31300A7067646FD0
:1006B000776E3A092D31300A0A7370656564203D02
:1006C0002064656C7461202A206D61785F737065A9
:1006D0006564202A2028726570656174202F20745B
:1006E000696D655F746F5F6D6178290A003F004D29
:1006F0003E2000433E20004C25640A0074696D656D
:10070000725F72656164333228293A202530346C77
:10071000580A006B65796D61705F636F6E6669671B
:100720002E6E6B726F3A2025580A006B6579626FE6
:100730006172645F69646C653A2025580A006B65D4
:1007400079626F6172645F70726F746F636F6C3A1D
:100750002025580A00686F73745F6B6579626F615A
:1007600072645F6C65647328293A2025580A000A70
:10077000092D20537461747573202D0A004743437B
:100780003A20392E322E30204156522D4C494243C8
:100790003A20322E302E30204156525F415243488B
:1007A0003A20617672350A004F5054494F4E533A01
:1007B000204C554641204D4F5553454B45592045FA
:1007C000585452414B455920434F4E534F4C4520AE
:1007D000434F4D4D414E44204E4B524F2034303903
:1007E000360A004255494C443A2022302E372E36E4
:1007F000362D32372D673737313065302D646972C9
:10080000747922202832323A31323A3430204E6F15
:10081000762031312032303139290A005649443AA4
:1008200020307846454544284D6174746961204400
:10083000616C2042656E29205049443A2030783658
:10084000303630285265646F785F776972656C6501
:10085000737329205645523A203078303030310AAF
:1008600000444553433A20712E6D2E6B2E206B654C
:1008700079626F617264206669726D77617265205A
:10088000666F72205265646F782D770A000A092D11
:100890002056657273696F6E202D0A000A092D209B
:1008A000436F6E736F6C65202D0A4553432F713A69
:1008B00009717569740A6D3A096D6F7573656B65B9
:1008C000790A000A092D204D61676963202D0A44C9
:1008D0003A094465627567204D65737361676520E9
:1008E000546F67676C650A583A094D61747269788C
:1008F000204465627567204D6F646520546F67679B
:100900006C65202D2053686F77206B657970726558
:100910007373657320696E206D61747269782067E6
:100920007269640A4B3A094B6579626F617264209F
:10093000446562756720546F67676C65202D20538E
:10094000686F77206B65797072657373207265705C
:100950006F72740A4D3A094465627567204D6F7570
:10096000736520546F67676C650A563A095665725D
:1009700073696F6E0A533A095374617475730A434D
:100980003A09416374697661746520436F6E736FD1
:100990006C65204D6F64650A46312D4631303A0949
:1009A00053776974636820746F204C617965722095
:1009B000302D392028463130203D204C30290A3056
:1009C0002D393A0953776974636820746F204C613C
:1009D00079657220302D390A47524156453A0953FC
:1009E000776974636820746F204C61796572203078
:1009F0002028616C7465726E617465290A423A0937
:100A00004A756D7020746F20426F6F746C6F6164F3
:100A100065720A4553433A094A756D7020746F2018
:100A2000426F6F746C6F616465722028616C7465CD
:100A3000726E617465290A453A095072696E7420B4
:100A4000454550524F4D2053657474696E67730A63
:100A50004253504143453A09436C65617220454514
:100A600050524F4D0A4E3A094E4B524F20546F6729
:100A7000676C650A000A002575002E6E6B726F3A6E
:100A800020000A002575002E737761705F62616334
:100A90006B736C6173685F6261636B7370616365D4
:100AA0003A20000A002575002E737761705F677227
:100AB0006176655F6573633A20000A002575002E34
:100AC0006E6F5F6775693A20000A002575002E7306
:100AD0007761705F72616C745F726775693A20004C
:100AE0000A002575002E737761705F6C616C745F0E
:100AF0006C6775693A20000A002575002E737761CE
:100B0000705F7263746C5F726775693A20000A00E7
:100B10002575002E737761705F6C63746C5F6C6712
:100B200075693A20000A002575002E636170736CA8
:100B30006F636B5F746F5F636F6E74726F6C3A207C
:100B4000000A002575002E737761705F636F6E7405
:100B5000726F6C5F636170736C6F636B3A20000A35
:100B60000025303258006B65796D61705F636F6E80
:100B70006669672E7261773A20000A002575002E9B
:100B80006D6F7573653A20000A002575002E6B6540
:100B900079626F6172643A20000A002575002E6D3B
:100BA00061747269783A20000A002575002E656E1E
:100BB00061626C653A20000A002530325800646595
:100BC0006275675F636F6E6669672E7261773A2040
:100BD000000A0025750064656661756C745F6C6160
:100BE0007965723A20003F004E4B524F3A206F66B3
:100BF000660A004E4B524F3A206F6E0A000A6D6F24
:100C00007573653A206F66660A000A6D6F757365C5
:100C10003A206F6E0A000A6B6579626F6172643AFE
:100C2000206F66660A000A6B6579626F6172643ACA
:100C3000206F6E0A000A6D61747269783A206F66DF
:100C4000660A000A6D61747269783A206F6E0A0054
:100C50000A64656275673A206F66660A000A646511
:100C60006275673A206F6E0A000A0A4A756D7069EC
:100C70006E6720746F20626F6F746C6F6164657251
:100C80002E2E2E2000433E2000436C656172696E5B
:100C90006720454550524F4D0A006565636F6E668B
:100CA00069673A0A005B735D004B6579626F617238
:100CB000642073746172742E0A005B575D005B538D
:100CC0005D005B525D005B445D005B435D000403BF
:100CD000300000001E035200650064006F007800C1
:100CE0005F0077006900720065006C0065007300AA
:100CF000730000001E034D00610074007400690061
:100D000061002000440061006C002000420065008A
:100D10006E0000000403090409025B00030100A047
:100D2000FA09040000010301010009211101000179
:100D30002240000705810308000A0904010001039D
:100D400000000009211101000122C00007058203F3
:100D500020000A0904020002030000000921110119
:100D60000001222200070583032000010705030379
:100D70002000011201100100000008EDFE6060017A
:100D800000010203010631FF0974A1010975150074
:100D900026FF009520750881020976150026FF00C0
:100DA000952075089102C005010902A1018502097B
:100DB00001A10005091901290515002501950575F1
:100DC0000181029501750381010501093009311581
:100DD00081257F95027508810609381581257F9543
:100DE0000175088106050C0A38021581257F9501D9
:100DF00075088106C0C005010980A10185031A811B
:100E0000002A830016010026030095017510810059
:100E1000C0050C0901A10185041A01002A9C0216D3
:100E20000100269C02950175108100C0050109068C
:100E3000A1018505050719E029E715002501950899
:100E4000750181020507190029EF1500250195F0AC
:100E500075018102050819012905950575019102A1
:100E6000950175039101C005010906A10105071946
:100E7000E029E715002501950875018102950175A6
:100E80000881010507190029FF150026FF009506B6
:100E9000750881000508190129059505750191025C
:100EA000950175039101C00011241FBECFEFDAE058
:100EB000DEBFCDBF04B603FE27C080912D02909106
:100EC0002E02A0912F02B09130028730904BA740A4
:100ED000B04BD1F410922D0210922E0210922F02DC
:100EE0001092300214BE84B7877F84BF0FB6F89487
:100EF000A8958091600088618093600010926000E6
:100F00000FBEE0E0F8E3099511E0A0E0B1E0E2EA0D
:100F1000FDE502C005900D92AC32B107D9F722E091
:100F2000ACE2B1E001C01D92AD32B207E1F70E9420
:100F300080280C945A2E0C940000FF93EF93E091BC
:100F40002C01F0912D01309709F00995EF91FF9157
:100F50000895FC018591803011F0EFDFFBCF0895FB
:100F6000FF27E0E230E247FF0CC0419597FF09C040
:100F7000EDE26095709580959095611D711D811DC4
:100F8000911D27FF02C0219530E350E2AA27660F8A
:100F9000771F881F991FAA1FA41710F0A41B639521
:100FA0005A95A9F7AA3008F0A95FA05DAF93F39511
:100FB000611571058105910541F7ED3211F4EF934B
:100FC000F395F21718F43F93F395FBCF8F91B5DFAC
:100FD000FA95E1F70895E991F9918591803021F032
:100FE000853219F0AADFF9CF089520E0E8945591F1
:100FF0005532C1F3503311F4689455915A3348F483
:10100000505390F3220F022E220F220F200D250F96
:10101000F4CF0EF4219589919991533619F35337F2
:1010200029F1533559F1BC0188279927E8945C369A
:1010300021F48991999168945591543639F446EF89
:101040007EF077FF0DC08FEF9FEF0AC055374AE063
:1010500039F0583540E121F0523642E009F0089568
:10106000FF93EF937DDFEF91FF91B7CFFF93EF9366
:10107000FC0181918030B9F360DFFBCFFF93EF93E8
:1010800068DFF1CFDF93CF93CDB7DEB72596A3DF2F
:10109000CF91DF910895089508950C945709CF9347
:1010A000DF93CDB7DEB72B970FB6F894DEBF0FBE38
:1010B000CDBF1092CC001092CD0088E18093C90082
:1010C00086E08093CA0083E78093CE001A8219825B
:1010D000FE01339689E0DF011D928A95E9F7329788
:1010E000CE010C96DF0140E050E0BA012091C8002B
:1010F00027FD0AC04F5F5F4F6F4F7F4F413127E29F
:1011000052076105710590F32091CE002D93A81729
:10111000B90761F78B85803E91F4AEE2B1E09F01A3
:10112000265F3F4F818140E8849FC00111244081A8
:10113000842B8D939D9332962E173F0799F70E942B
:101140005F0981E02B960FB6F894DEBF0FBECDBFCE
:10115000DF91CF910895E82FF0E0EE0FFF1FE25DE1
:10116000FE4F808191810895CF92DF92EF92FF929E
:101170000F931F93CF93DF938CEB90E00E94A9070E
:101180008EE2E82E81E0F82ED0E0C0E097EBC92E89
:1011900090E0D92E0EEA10E0DF93CF93DF92CF924A
:1011A0000E94420884EB90E00E94A907F701819118
:1011B00091917F010E94B91B9F938F931F930F936F
:1011C0000E9442088CEA90E00E94A90721968DB700
:1011D0009EB708960FB6F8949EBF0FBE8DBFC53060
:1011E000D105D1F6DF91CF911F910F91FF90EF9034
:1011F000DF90CF9008951092CC001092CD0088E13E
:101200008093C90086E08093CA000895519A599A44
:1012100080B3806380BB81B3806381BB08950E94EB
:101220004B080E94FB080C9406090C944C08089586
:1012300081E0089581E008950C941A091F93CF93DB
:10124000DF9300D000D00F92CDB7DEB749835A8329
:101250006B8320914D0189819A8121111BC06623E6
:10126000A9F00E94D019182F682F89819A810E94B5
:10127000791969817A81812F0F900F900F900F90CB
:101280000F90DF91CF911F910C94E20A0E94A71951
:10129000182FEFCF0E94D01969817A81EDCFFC0120
:1012A000408151816281738184810C941E090E9466
:1012B000C61B811102C00E94631C0C940F090C9480
:1012C000150981E008950C946109CF93C82F0E94FD
:1012D00017098C2FCF910C94630908950E94F6137F
:1012E0000E946D092FEF84E39CE0215080409040E4
:1012F000E1F700C0000087E797E79093010880932B
:1013000000080C94141E0F931F93CF93DF938C014E
:101310000E944F09EC01B8010E941C09882309F4BE
:1013200075C0B801CE010E94030E882309F46EC077
:10133000CC3D8CE5D80709F48CC068F5C130FCE5DC
:10134000DF0709F469C058F4C115DC4509F459C038
:10135000C801DF91CF911F910F910C941809C631EC
:10136000FCE5DF0760F1C631DC4591F70E94C11A48
:10137000F8019281992309F417C18A7A91E009F45E
:1013800090E09093380181110DC189E20E94481AC2
:101390000E941F1B3BC0CE3DECE5DE0709F452C0A6
:1013A00048F4CD3DDC45A1F6F8018281882371F136
:1013B00082E054C0CE018A5F9C45099748F6F80147
:1013C0008281882329F20E94C61B811102C00E94DB
:1013D000631C0E94D91B90931F0280931E02C6318A
:1013E000FCE5DF0708F04AC0C2308CE5D807C8F535
:1013F00080911E0290911F020E94E71B0E94F6132B
:1014000005C0F801828181110E946E0980E0DF91A0
:10141000CF911F910F910895F80182818823B1F334
:101420009091E401892F8E7F90FF81608093E40189
:1014300080FF05C085E193E00E94A907E7CF83E024
:1014400093E0FACFF8018281882301F30E94631CA4
:10145000DDCFF80182818823C9F280E00E942A2929
:10146000D5CFFE01E350FC4580911E028160E3313F
:10147000F10590F4E45AF14D0C94FE2DCA5FDC4561
:10148000C930D10508F0B4CFC159D14DFE010C943B
:10149000FE2D80911E02826080931E02A9CF809152
:1014A0001E028460F9CF80911E028860F5CF809182
:1014B0001F02816080931F029BCF80911F02826078
:1014C000F9CF80911E028061E7CF80911E02806279
:1014D000E3CF80911E028064DFCF0E94F6138091DB
:1014E0001E028068D9CF80911E028C60D5CF80917A
:1014F0001F028360DFCF80911E028E7FCDCF80914F
:101500001E028D7FC9CF80911E028B7FC5CF809137
:101510001E02877FC1CF80911F028E7FCBCF80912B
:101520001F028D7FC7CF80911E028F7EB5CF809125
:101530001E028F7DB1CF80911E028F7BADCF0E94A6
:10154000F61380911E028F77A7CF80911E02837FB2
:10155000A3CF80911F028C7FADCF80911E0282FBB2
:10156000992790F921E0922790FB82F990FB83F96B
:1015700093CF80911F02982F909591708E7F892B29
:1015800090FB81F997CF0E94F61390911E02892F4C
:1015900097FB87F9805880CF81E00E94651C28CF97
:1015A00080E0FBCF85E3F2CE80913801811104C049
:1015B00089E20E944F1AECCE85E3FBCF90E080E0F9
:1015C00008950895972F70E02EE0929F600D711D91
:1015D0001124FB0196E4899FE00DF11D1124EE0F0B
:1015E000FF1FED52FF4F859194910895FC01EE0F7E
:1015F000FF1FEA5DFC4F859194910895CF93DF938F
:101600000E94E20A0E94BB0CEC01811520E59207C2
:1016100008F0A3C0811530E4930708F012C1803EA2
:10162000910508F079C0803C910508F0F3C0883A34
:10163000910580F4853A910508F0F2C0813091055A
:1016400009F47BC00497813A910508F476C0D0E094
:10165000C0E073C08F3B9105D1F3883A910509F43E
:1016600045C1893A910509F444C18A3A910509F4C2
:1016700043C18B3A910509F442C18C3A910509F4B2
:1016800041C18B3B910509F440C18C3B910509F4A4
:101690003FC18D3A910509F43EC1803B910509F4A3
:1016A0003DC18E3A910509F43CC18F3A910509F488
:1016B0003BC1813B910509F43AC1823B910509F494
:1016C00039C1833B910509F438C1843B910509F484
:1016D00037C1853B910509F436C1863B910509F474
:1016E00035C1873B910509F434C1883B910509F464
:1016F00033C1893B910509F432C18D3B910509F451
:1017000031C18E3B910509F430C18A3B910509F442
:101710002FC1C0E0D4E411C0811540E2940788F4E1
:101720008F3F910509F048F4883E910530F0805FC5
:101730009109D065409708F08ACFCE01DF91CF9113
:101740000895C11580E3D80708F475C0CE01992724
:10175000D3FD74C0EC01D06CF0CFC11595E5D9076D
:1017600060F5C11524E5D20708F09CC0C11533E52A
:10177000D30778F4C11542E5D40708F082C0C1153B
:1017800081E5D80708F460C0DC2FCC27C16FD06A90
:10179000D4CFCE018370992721E030E002C0220F20
:1017A000331F8A95E2F7C695C69590E2C99FE0017E
:1017B0001124C22BD32BDA68C0CFC1152AE5D2077A
:1017C000B0F4C11539E5D30708F07CC0C11546E572
:1017D000D40708F46CC0CE0198558F3F910511F0E5
:1017E00008F035CFDC2FCC27C06FD06AA6CFCE0152
:1017F00090568115904208F02ACF8D2F8F710E944C
:10180000530D90E0982F882788279F719C012C2BDF
:10181000E90156C0805C91090E94F60AEC018DCF67
:10182000853A910509F45CC0863A910509F05BC0E0
:10183000C2E8D0E482CFCE019F70EECFEC01D86C2D
:101840007CCFDF70D06A79CFCE0174E09695879512
:101850007A95E1F783702C2F26952695237040E228
:10186000249F90011124382B8C2F8370C1E0D0E08D
:1018700002C0CC0FDD1F8A95E2F7C22BD32BDC68A8
:101880005CCFCE018370992721E030E002C0220FA7
:10189000331F8A95E2F7C695C69580E2C89FE0019E
:1018A0001124EBCFDC2FCC27C46FD06A46CF8C2F0E
:1018B0000E94530DC82FD0E0DC2FCC27CC27DF713E
:1018C000D0623BCF8C2F8F700E94530D34E0D695A1
:1018D000C7953A95E1F7CF70DC2FC82FD0692DCF8F
:1018E000C1E8D0E42ACFC3E8D0E427CFC2EED4E4E5
:1018F00024CFC9EED4E421CFCAEED4E41ECFC5EB89
:10190000D4E41BCFC6EBD4E418CFC3EBD4E415CF9B
:10191000C4EBD4E412CFC7EBD4E40FCFCCECD4E4C7
:101920000CCFCDECD4E409CFC3E8D5E406CFCAE8A8
:10193000D5E403CFC2E9D5E400CFC4E9D5E4FDCEB8
:10194000C1E2D6E4FACEC3E2D6E4F7CEC4E2D6E4EE
:10195000F4CEC5E2D6E4F1CEC6E2D6E4EECEC7E2DE
:10196000D6E4EBCECFE6D4E4E8CEC0E7D4E4E5CECF
:10197000CAE2D6E4E2CE803E910599F1C8F4813303
:10198000910509F476C048F48932910509F46AC0DA
:101990008A32910509F474C0089589339105D1F014
:1019A00082389105B9F08533910509F454C0089542
:1019B000843E910599F138F4823E9105F9F0833E19
:1019C000910509F10895863E910599F1873E9105AB
:1019D000B9F1089520911E022370A1F080EE90E0ED
:1019E000089520911E0220FD52C030911F0230FF49
:1019F00009C024FF4FC090E080E004C020911E0287
:101A000022FDF7CF089520911E0222FD46C030919D
:101A10001F0230FDE3CF24FFF5CFEDCF20911F0251
:101A200021FFF0CF80911E0284FDE5CF87EE90E08C
:101A3000089520911E0223FFE5CF24FDDCCFF6CFD1
:101A400020911E0223FD2CC030911F0231FFE3CFF5
:101A500084EE90E0089520911E0225FFD3CF89E205
:101A600090E0089520911E0225FFCCCF85E390E001
:101A7000089520911E0226FFC5CF8AE290E00895C6
:101A800020911E0226FFBECF81E390E0089589E3F6
:101A900090E0089583EE90E0089582EE90E008953E
:101AA00086EE90E0089590911E0292FF06C0282FC6
:101AB00028712830F9F4877F846093FF06C0282FAF
:101AC00028712831F1F4877E846120911F0220FF64
:101AD00006C0382F38713830D9F4877F816021FFF4
:101AE00006C0282F28712831D1F4877E816194FDAA
:101AF000877E0895282F24712430F9F68B7F886023
:101B0000DCCF282F2471243101F78B7E8861DDCF53
:101B1000382F3171313019F78E7F8860E0CF282F50
:101B20002171213121F78E7E8861E1CF0F931F93C0
:101B3000CF93DF93C62FD42F022FFC0182818823FD
:101B4000C9F060933B010E949F1D90933A018093DE
:101B5000390180E28C0F883008F050C0C77081E0F6
:101B600001C0880FCA95EAF7DF91CF911F910F91BD
:101B70000C94131110913B01161335C0809139015B
:101B800090913A010E94CB1D883C910560F5C0E21E
:101B9000CD0F1D17B9F080E2810F883040F4177027
:101BA00081E001C0880F1A95EAF70E941A11C83027
:101BB00048F481E09D2F977001C0880F9A95EAF74D
:101BC0000E941311802F0E940011C830B8F4D77002
:101BD00081E001C0880FDA95EAF7DF91CF911F917C
:101BE0000F910C941A1180E28C0F883038F4C77072
:101BF00081E001C0880FCA95EAF7EFCFDF91CF915E
:101C00001F910F9108959C01CB01233F4CE53407B0
:101C100069F190F4283DFCE53F0721F1293D4CE5B1
:101C2000340781F1273D3C45B1F0FC0182818823D6
:101C300061F110923B010895253FFCE53F07D1F08B
:101C4000263F4CE53407D1F0243F3C4571F727E2AD
:101C500045EE64EE03C026E241EE61EE0E94960D71
:101C600080E0089527E245EE65EEF8CF26E241EEEA
:101C700060EEF4CF26E241EE62EEF0CF27E245EED1
:101C800066EEECCF28E241E0EFCF81E0089590933B
:101C90004101809340010895E0914001F09141019C
:101CA000309721F00190F081E02D099480E00895B3
:101CB000EF92FF920F931F93CF93DF93EC01E0918C
:101CC0004001F0914101309709F446C08091120122
:101CD000882341F080911E0287FF04C08881898398
:101CE00085E088830280F381E02DCE010995809103
:101CF000E40182FF31C080FF04C08EE293E00E94C5
:101D0000A90710E000E088E2E82E83E0F82E809139
:101D1000E40180FF0EC0FE01E00FF11F80811F92E1
:101D20008F93FF92EF920E9442080F900F900F90B6
:101D30000F900F5F1F4F0830110549F78091E401A4
:101D400080FF0AC086E293E0DF91CF911F910F914F
:101D5000FF90EF900C94A907DF91CF911F910F9105
:101D6000FF90EF900895DC01E0914001F091410176
:101D7000309739F082E08C930480F581E02DCD011D
:101D80000994089520913E0130913F0128173907A9
:101D900071F090933F0180933E01E0914001F091FA
:101DA0004101309721F00680F781E02D09940895D4
:101DB00020913C0130913D012817390771F0909333
:101DC0003D0180933C01E0914001F0914101309749
:101DD00021F00084F185E02D0994089585B780688D
:101DE00085BF85B7806885BF0895089508950C94D0
:101DF000F50E08950C94F90E0E94EE0E0E94F60E58
:101E00000C94F70E81E008950E94961D0E944D08E3
:101E10000E94251E0C94FA0ECF93C82F8091E401E6
:101E200082FF1EC080FF1CC087E493E00E94A907C8
:101E30008091E40180FF14C01F92CF9382E493E06D
:101E40009F938F930E9442088091E4010F900F901E
:101E50000F900F9080FF04C080E493E00E94A907D8
:101E60008C2FCF910C9465095F926F927F928F9225
:101E70009F92AF92BF92CF92DF92EF92FF920F9319
:101E80001F93CF93DF9300D000D00F92CDB7DEB772
:101E90000E944F080E94020F882309F479C093E43E
:101EA000A92E91E0B92E10E000E088248394912CB3
:101EB000502E802F0E94AB087C01F501C190D1907B
:101EC0005F01C816D90609F45DC08091E40181FD67
:101ED0000E94B40890E080E0CE24DF243401082E74
:101EE00002C0660C771C0A94E2F79601262137217E
:101EF000232B09F442C089835A82E620F72081E02F
:101F0000EF2809F480E08B830E949F1D8160782F69
:101F10009D838C8349815A816B818D810E94EE0F54
:101F2000000F111FF801ED5BFE4F80819181682643
:101F30007926718260820E9446200E944C0E909108
:101F400042018917B1F10E944C0E809342010F901B
:101F50000F900F900F900F90DF91CF911F910F91E5
:101F6000FF90EF90DF90CF90BF90AF909F908F90B9
:101F70007F906F905F900C940C0F01968E309105BE
:101F800009F0ACCF0F5F1F4F0530110509F090CF5E
:101F90008FEF89838A831B820E949F1D8160782F27
:101FA0009D838C8349815A816B818D810E94EE0FC4
:101FB000C2CF0F900F900F900F900F90DF91CF91A5
:101FC0001F910F91FF90EF90DF90CF90BF90AF9057
:101FD0009F908F907F906F905F900895CF93DF9345
:101FE000CDB7DEB72B970FB6F894DEBF0FBECDBFCF
:101FF0004F83588769877A878B871E8285E0FE0129
:102000003796DE01119601900D928A95E1F70E94B4
:102010008E1A882319F082E00E94881B0E945C1AA5
:1020200081110E94111B49815A816B817C818D81B4
:102030009E812B960FB6F894DEBF0FBECDBFDF9109
:10204000CF910C948F16FC01808191810C94121A0F
:10205000CF93C82F882309F4A2C08CEF8C0F813A4C
:1020600058F48C2F0E94C124811199C08C2F0E949A
:10207000481ACF910C941F1B80E28C0F883048F4D3
:10208000C77081E001C0880FCA95EAF70E94C41AA0
:10209000F0CF8BE58C0F833068F481E890E0C53A8F
:1020A00031F083E890E0C63A11F482E890E0CF91F5
:1020B0000C94C20E88E58C0F873108F068C082EE60
:1020C00090E0C83A09F460C089EE90E0C93A09F49A
:1020D0005BC08AEE90E0CA3A09F456C085EB90E006
:1020E000CB3A09F451C086EB90E0CC3A09F44CC0ED
:1020F00083EB90E0CB3B09F447C084EB90E0CC3B12
:1021000009F442C087EB90E0CD3AF1F18CEC90E01D
:10211000C03BD1F18DEC90E0CE3AB1F183E891E093
:10212000CF3A91F18AE891E0C13B71F182E991E007
:10213000C23B51F184E991E0C33B31F181E292E08D
:10214000C43B11F183E292E0C53BF1F084E292E0FE
:10215000C63BD1F085E292E0C73BB1F086E292E067
:10216000C83B91F087E292E0C93B71F08FE690E0C6
:10217000CD3B51F080E790E0CE3B31F090E080E045
:10218000CA3B11F48AE292E0CF910C94D80EC03F82
:1021900030F08C2F0E94D21ECF910C94B91FCF919A
:1021A0000895882361F19CEF980F913A20F40E94E2
:1021B0004F1A0C941F1B90E2980F983050F48770C0
:1021C00091E001C0990F8A95EAF7892F0E94CA1AF7
:1021D000F0CF9BE5980F933020F490E080E00C94D2
:1021E000C20E98E5980F973120F490E080E00C94AF
:1021F000D80E803F20F00E943A1F0C94B91F08951A
:10220000CF93C82F0E942810C93349F42FEF87EECF
:1022100093E0215080409040E1F700C000008C2FF7
:10222000CF910C94D110882321F00E94C41A0C94F1
:102230001F1B0895882321F00E94CA1A0C941F1BAB
:102240000895AF92BF92CF92DF92EF92FF920F93D9
:102250001F93CF93DF9300D000D00F92CDB7DEB79E
:102260006C016D837983FC01058102950F701281E9
:1022700011110E94E31A0E94BA1AE82E882371F005
:102280001123B1F08D81805E883090F082E00E9451
:10229000881B0E94BA1A91E0E82EE926A980A29430
:1022A0009FE0A922B12CF501E858F14D0C94FE2DC8
:1022B000E12CF4CF09810F70F981F07F11F00295C4
:1022C000007F1123B1F0002361F08D81805E8830A2
:1022D00018F02D81211109C0802F0E94C41A0E947C
:1022E0001F1B8D810E94281015C0802F0E94D51AB7
:1022F000F6CF8D810E94D110002361F08D81805E28
:10230000883018F04D81411133C0802F0E94CA1AC5
:102310000E941F1B58E0A51AB10864E0A616B1047C
:1023200020F40E944C0E0E946509EE2009F40EC2B2
:102330000E948A1A80FD0AC2F60112820E94841A43
:102340000E946918C6010E94B6130E94841A0F9059
:102350000F900F900F900F90DF91CF911F910F91E1
:10236000FF90EF90DF90CF90BF90AF900C949A18B1
:10237000802F0E94DB1ACCCF59815F70F52E6981C6
:10238000607F603219F0F29480EFF8227D8177232C
:1023900069F0713049F1112391F1002351F1F601F7
:1023A000858180FF9ECF8F70858323C0112381F0AC
:1023B000011106C00E94F71A8F290E941311AACF9B
:1023C0000130C1F70E94F71A8F290E94FD1AA2CF8F
:1023D000011106C00E94111B8F2D0E941A119ACF65
:1023E000013009F497CFF6CF112329F0063008F019
:1023F00091CF8F2DE2CF053008F08CCFEDCF0023A9
:1024000059F3FD81F93349F42FEF47EE53E02150A2
:1024100040405040E1F700C000008D810E94D11083
:1024200079CF898186958695837069F0813009F02E
:1024300071CF8D8199819370111102C090E080E07D
:102440000E94D80E67CF8D8199819370111102C0BF
:1024500090E080E00E94C20E5DCF112311F16D81EA
:10246000653F99F0663FB9F0643F49F480911802E6
:1024700090911902816090931902809318028D81C6
:102480000E94D21E0E94B91F45CF809118029091E0
:1024900019028260F0CF8091180290911902846035
:1024A000EACF7D81753F89F0763FA9F0743F49F40A
:1024B00080911802909119028E7F90931902809357
:1024C00018028D810E943A1FDDCF809118029091F1
:1024D00019028D7FF2CF80911802909119028B7FA3
:1024E000ECCF8981837009F059C0111113CF4D8150
:1024F000429546954770440F440F8D818F7090E050
:10250000B0E0A0E0042E04C0880F991FAA1FBB1FD3
:102510000A94D2F7ED8100E010E09801E4FF0FC0CB
:102520000FE010E020E030E004C0000F111F221F78
:10253000331F4A95D2F70095109520953095F98173
:10254000F695F695F370FD83B901A801482B592B38
:102550006A2B7B2B49835A836B837C83F23081F017
:10256000F330A9F0F13029F0CB01BA010E94DF1756
:10257000D1CE69817A818B819C810E94B717CACEA6
:1025800069817A818B819C810E940718C3CE698101
:102590007A818B819C810E94B517BCCE86951123D0
:1025A00011F089818170882309F4B4CE4D81429560
:1025B00046954770440F440F8D818F7090E0B0E0D6
:1025C000A0E0042E04C0880F991FAA1FBB1F0A9405
:1025D000D2F75D8100E010E0980154FF0FC00FE0DA
:1025E00010E020E030E004C0000F111F221F331F55
:1025F0004A95D2F70095109520953095698166959A
:10260000669563706D83B901A801482B592B6A2B1D
:102610007B2B49835A836B837C835D8169817A81BB
:102620008B819C81523051F0533059F0513019F068
:102630000E9428196FCE0E9400196CCE0E9450197A
:1026400069CE0E94331866CE69816F706983112349
:1026500029F0862F0E9469188D81AFCE8D810E944E
:102660001A1189810E949A1855CE7D81723FA1F17D
:1026700060F4703FE1F0713F41F1112309F445C06E
:1026800001112FCE89818F7124C08D81833F49F143
:10269000843F99F7112379F199819F719983892F4B
:1026A0000E94691863E089810E94691B33CE11235F
:1026B00041F0053008F02ECE89818F710E94CF182D
:1026C00029CE063008F026CEF7CF89818F711123ED
:1026D00049F20E9469181ECE89818F711123C9F3B6
:1026E000C1CF112329F089818F710E94441812CE25
:1026F0000E943F180FCE81E00E94881B023008F430
:1027000009CE82E00E94881B05CE002361F0ED8196
:10271000E93309F082CEFFEF27EE43E0F15020408D
:102720004040E1F778CE89818F719CCF49814F700D
:102730006D81C6010E94DE0A0E942917EBCD4981F6
:102740004F706D81C6010E94E10AE4CD0F900F9099
:102750000F900F900F90DF91CF911F910F91FF90ED
:10276000EF90DF90CF90BF90AF9008950F931F939D
:10277000CF93DF93EC018B819C81892B29F0888199
:10278000998189238F3F29F4DF91CF911F910F9178
:102790000895CE010E9483098823B1F3688179816D
:1027A0008A810E941E1A8C010E9478190E94B41717
:1027B000B801CE01DF91CF911F910F910C9421119F
:1027C0000E94E31A0E94F41A0E941F1B0E94DD203F
:1027D0000E94B91F90E080E00E94C20E90E080E06D
:1027E0000C94D80E0E94561A0C94E0130E94D21A30
:1027F0000C94F213282F892F82958F70903C80F4CF
:102800008A30B0F4843020F4823090F480E008956F
:102810008630E1F781E0283E88F0213FB9F70EC00D
:102820008C3011F08F3091F793FB882780F9089551
:1028300081E0203F39F018F4283E40F70895243F06
:1028400029F7FCCF08950E94121A0C94FA13CF9323
:10285000DF9300D000D00F92CDB7DEB70F900F906E
:102860000F900F900F90DF91CF910895CF93DF934A
:1028700000D000D000D0CDB7DEB726960FB6F894C2
:10288000DEBF0FBECDBFDF91CF9108951F93CF93D1
:10289000DF93E0914E0116E080914F018E1304C04A
:1028A000DF91CF911F910895CE2FD0E01E9FF001B0
:1028B0001124E05BFE4F40815181628173818481EC
:1028C00095810E943614FE013196E770E5CF409164
:1028D000800150918101609182017091830180910A
:1028E0008401909185010C9436141F93CF93DF934C
:1028F00080918501807FC1F4809182018823A1F0BD
:1029000080914E01C0914F016091800170918101D1
:102910004091830150918401D62FD723DA01A095ED
:10292000B09516E0C81304C0DF91CF911F910895B0
:1029300090E04115510511F0DF3F31F401968770A9
:10294000F1CF2A0F3B1F17C0189FF001199FF00D00
:102950001124E05BFE4F21812713F0CF2081261345
:10296000EDCF22812111EACF23813481241735074D
:1029700040F3241B350B283C310500F720918501DD
:102980002F7020612093850126E0289FF001299F68
:10299000F00D1124EB5AFE4F80818F70806180838F
:1029A00080E891E00E94B613DF91CF911F910C94C3
:1029B00046149F92AF92BF92CF92DF92EF92FF9216
:1029C0000F931F93CF93DF93CDB7DEB72B970FB63F
:1029D000F894DEBF0FBECDBF8C0185E0F801DE01AB
:1029E000179601900D928A95E1F7D8014C911196B6
:1029F0005C9111971296EC901297809183019091BF
:102A00008401009709F46CC120918001309181010B
:102A1000632F62236F3F09F463C11396CD90DC905E
:102A200090908201992009F4FAC0C816D90608F4DA
:102A30003FC0F601E81BF90BCF01FF24F394883C5B
:102A4000910508F0F12C80E8A82E81E0B82E809145
:102A50008501982F907FFF2009F4B9C0911180C0A3
:102A6000FE2C35132AC0241328C0E11026C08F7015
:102A70008061809385010E946714C5010E94B6138E
:102A800080918501D80115968C938F2D2B960FB6CA
:102A9000F894DEBF0FBECDBFDF91CF911F910F9194
:102AA000FF90EF90DF90CF90BF90AF909F900895F0
:102AB000809590958C0D9D1DC0CFCD2829F0842F39
:102AC00085238F3F09F028C180E0B82FB170DB2E3D
:102AD000E0914E0120914F0136E080FD1CC0EE20B8
:102AE000A1F280918501816080938501F12CCDCF89
:102AF0008E2F90E03E9FF0011124E05BFE4F61813C
:102B0000651306C06081641303C062816E11E7CF54
:102B1000FC013196E770E213EBCF4F8358878F812A
:102B200098850E94121A292F22952F70903260F0FA
:102B3000225F2F70223078F49F7051F0F801958158
:102B4000907F31F4D12C0AC09F7011F08823D1F30B
:102B5000805E8830B8F3C8010E94B613FD2C95CF73
:102B6000351306C0241304C0D801EE2009F47CC03C
:102B70004F8358878F8198850E942314882319F1E9
:102B8000EE2009F180918501803270F02091800162
:102B9000309181013A8329831B82DD82CC828E832E
:102BA000CE0101960E94B61386E0F801A0E8B1E0DC
:102BB00001900D928A95E1F70E9475140E946714A6
:102BC000FF24F39462CFC8010E94B613F9CF91118C
:102BD00013C07C2DDB86CA866E2D8B850E94271440
:102BE00080E891E00E94B61386E0F50111928A9583
:102BF000E9F70E94671449CF3513BACF2413B8CF31
:102C0000E110B6CFD80115968C93C8010E94B61377
:102C100086E0F50111928A95E9F7F92C36CFC816AE
:102C2000D90680F1B601681B790BCB01F12C883CE9
:102C3000910508F046C0FE2CEE2029F2351330C075
:102C400024132EC08091850180FD21C0982F907F94
:102C5000F1F0D80115968C931597903F39F0982F85
:102C6000907F905F8F70892B15968C93C8010E947E
:102C7000B61386E0F801A0E8B1E001900D928A95C4
:102C8000E1F7B7CF809590958C0D9D1DCFCF86E055
:102C9000F801A0E8B1E001900D928A95E1F7F5CE38
:102CA0004F8358878F8198850E94231481117CCF90
:102CB00080918501816080938501C8010E94B613CF
:102CC000E4CE7C2DDB86CA866E2D8B850E94271470
:102CD00086E0E0E8F1E0DF011D928A95E9F789CF0F
:102CE000EE2009F470CF4F8358878F8198850E941A
:102CF0002314F82E882309F466CF86E0F801A0E8B3
:102D0000B1E001900D928A95E1F780E891E00E9490
:102D100023100E9475146DCF81E08E25D6CE1F93AF
:102D2000CF93DF93CDB7DEB72C970FB6F894DEBF05
:102D30000FBECDBF4F83588769877A878B879C8763
:102D4000CE0107960E94D914882369F08A859B8555
:102D5000892B39F04F815885842F85238F3F09F0C7
:102D600071C016E05FC086E0FE013796DE01119665
:102D700001900D928A95E1F78A859B85892B89F3CD
:102D800088859F8189238F3F61F320914F0130E037
:102D9000C90101968770992740914E01481719067D
:102DA00071F40E94F61310924F0110924E0186E0CA
:102DB000E0E8F1E0DF011D928A95E9F7D2CF96E0D5
:102DC000929FD001939FB00D1124A05BBE4FFE01D6
:102DD000319601900D929A95E1F780934F010E94F0
:102DE0004614BFCF819FC0011124805B9E4F0E947B
:102DF000D9148823E9F0E0914E011E9FF0011124BF
:102E0000E05BFE4F408151816281738184819581B5
:102E10000E94361480914E0190E0019687709927A8
:102E200080934E0180914E0190914F018913DACF2A
:102E30002C960FB6F894DEBF0FBECDBFDF91CF91B9
:102E40001F91089569857A858B859C850E9436142B
:102E500088CFEF92FF920F931F93CF93DF938C0154
:102E6000892B89F0F12CEE24E394E8012196F801F6
:102E70008491843709F457C0A0F4823009F43EC02D
:102E800048F48130D1F0DF91CF911F910F91FF90E5
:102E9000EF9008959CEF980F9037A8F70E942810A4
:102EA0000AC0853709F44CC09CE7980F903758F753
:102EB0008F770E94D1108E0116C00E5F1F4FFE014A
:102EC000849190E2980F983060F48770FE2D01C0D5
:102ED000FF0F8A95EAF78F2F0E94E61A0E941F1BA8
:102EE00002C00E9428108F2D815008F4BECFEFE958
:102EF000FFE03197F1F700C00000F6CF0E5F1F4FE3
:102F0000FE01849190E2980F983050F48770FE2D66
:102F100001C0FF0F8A95EAF78F2F0E94EC1ADECFCF
:102F20000E94D110E0CF0E5F1F4FFE01C491C1502F
:102F3000D0F28FE99FE00197F1F700C00000F7CFD2
:102F40000E5F1F4FFE01F490CECF08950C94A5178D
:102F50000E94A6176093B7017093B8018093B901DE
:102F60009093BA010C94E01308950C94A817CF9392
:102F7000DF9300D000D0CDB7DEB769837A838B832F
:102F80009C838091B7019091B801A091B901B09153
:102F9000BA0129813A814B815C81282B392B4A2B3C
:102FA0005B2B29833A834B835C83CA01B9010F9061
:102FB0000F900F900F90DF91CF910C94A817CF93A3
:102FC000DF9300D000D0CDB7DEB769837A838B83DF
:102FD0009C838091B7019091B801A091B901B09103
:102FE000BA0129813A814B815C81282339234A2304
:102FF0005B2329833A834B835C83CA01B9010F9019
:103000000F900F900F90DF91CF910C94A817CF9352
:10301000DF9300D000D0CDB7DEB769837A838B838E
:103020009C838091B7019091B801A091B901B091B2
:10303000BA0129813A814B815C81282739274A27A7
:103040005B2729833A834B835C83CA01B9010F90C4
:103050000F900F900F90DF91CF910C94A8170C94C4
:10306000A5170C942F180E9431186093B301709328
:10307000B4018093B5019093B6010C94E01360E025
:1030800070E0CB010C9433180F931F93CF93DF9311
:1030900000D000D0CDB7DEB741E050E060E070E096
:1030A0008A019B0104C0000F111F221F331F8A9544
:1030B000D2F709831A832B833C83C901B8010F908F
:1030C0000F900F900F90DF91CF911F910F910C9463
:1030D00033180F931F93CF93DF9300D000D0CDB759
:1030E000DEB741E050E060E070E004C0440F551FDF
:1030F000661F771F8A95D2F78091B3019091B40132
:10310000A091B501B091B6018A019B01082B192B42
:103110002A2B3B2B09831A832B833C83C901B801DB
:103120000F900F900F900F90DF91CF911F910F9103
:103130000C9433180F931F93CF93DF9300D000D0DC
:10314000CDB7DEB741E050E060E070E004C0440F6E
:10315000551F661F771F8A95D2F740955095609549
:1031600070958091B3019091B401A091B501B09197
:10317000B6018A019B01082319232A233B230983D3
:103180001A832B833C83C901B8010F900F900F90D5
:103190000F90DF91CF911F910F910C9433180F93E3
:1031A0001F93CF93DF9300D000D0CDB7DEB741E0BF
:1031B00050E060E070E004C0440F551F661F771FA9
:1031C0008A95D2F78091B3019091B401A091B50195
:1031D000B091B6018A019B01082719272A273B27AE
:1031E00009831A832B833C83C901B8010F900F9088
:1031F0000F900F90DF91CF911F910F910C94331886
:10320000CF93DF9300D000D0CDB7DEB769837A8348
:103210008B839C838091B3019091B401A091B501FF
:10322000B091B60129813A814B815C81282B392BE1
:103230004A2B5B2B29833A834B835C83CA01B901F8
:103240000F900F900F900F90DF91CF910C94331847
:10325000CF93DF9300D000D0CDB7DEB769837A83F8
:103260008B839C838091B3019091B401A091B501AF
:10327000B091B60129813A814B815C8128233923A1
:103280004A235B2329833A834B835C83CA01B901B8
:103290000F900F900F900F90DF91CF910C943318F7
:1032A000CF93DF9300D000D0CDB7DEB769837A83A8
:1032B0008B839C838091B3019091B401A091B5015F
:1032C000B091B60129813A814B815C812827392749
:1032D0004A275B2729833A834B835C83CA01B90160
:1032E0000F900F900F900F90DF91CF910C943318A7
:1032F0000895E82F2EE0929FE00D11248E2F877005
:1033000041E001C0440F8A95EAF7E695E695E69517
:1033100085E0E89FF0011124EA57FE4F30E020E0FD
:1033200070E05191DF011197CB01022E02C09695FA
:1033300087950A94E2F781708195852784238527F4
:103340008C932F5F3F4F2530310559F70895E82FB3
:103350002EE0929FE00D11249E2F9770E695E69542
:10336000E69585E0E89FF0011124EA57FE4F50E012
:1033700040E080E0219130E0092E02C0369527958B
:103380000A94E2F721703327042E01C0220F0A9419
:10339000EAF7822B4F5F5F4F4530510559F708958B
:1033A000BF92CF92DF92EF92FF920F931F93CF9332
:1033B000DF938C01C090B301D090B401E090B501CF
:1033C000F090B6018091B7019091B801A091B90138
:1033D000B091BA01C82AD92AEA2AFB2ACFE1D0E063
:1033E000BC2ED701C6010C2E04C0B695A7959795A3
:1033F00087950A94D2F780FD0EC0219788F7B12CEB
:103400008B2DDF91CF911F910F91FF90EF90DF9067
:10341000CF90BF900895B8018C2F0E94FE0A0197AB
:1034200061F3EECFCF93DF93D82FC92F0E94D0192D
:103430006D2F7C2FDF91CF910C94FE0A1F93CF93B9
:10344000DF93162FD72F90914D01992339F0862FB6
:10345000972FDF91CF911F910C94121A882391F02E
:10346000862F972F0E94D019C82F682F812F9D2F4C
:103470000E947919612F7D2F8C2FDF91CF911F91A1
:103480000C94FE0A862F972F0E94A719C82FF2CFFF
:10349000682F80910001909101010C94F21C682F1B
:1034A00080910001909101010C94FD1C809100011C
:1034B000909101010C94081D0E949F1D2091BE0156
:1034C0003091BF018217930780F00E949F1D2091C9
:1034D000BE013091BF01AC01421B530B9A0181E048
:1034E000243F314080F480E00EC00E949F1D209157
:1034F000BE013091BF0120953095280F391F81E022
:10350000243F314080F308958091BD0185958595D4
:10351000859508958091BD01877008950E949F1D33
:103520002091BB013091BC018217930770F00E947B
:103530009F1D2091BB013091BC01821B930B843FE6
:10354000914080F480E0817008950E949F1D209139
:10355000BB013091BC0120953095280F391F243FC5
:10356000314080F38091BD0182FB882780F991E092
:103570008927E9CF9091BD01977081E009F480E03F
:1035800008958091E30108959091E301982B909321
:10359000E3010895982F90958091E301892380930A
:1035A000E30108951092E30108959091E201982BB0
:1035B0009093E2010895982F90958091E2018923DC
:1035C0008093E20108951092E20108959091E10143
:1035D000982B9093E1010895982F90958091E101A7
:1035E00089238093E10108951092E101089580916B
:1035F000C001089508950C94FA1ACF93C82F8091B2
:10360000C0018C1761F00E949F1D9093BF018093B1
:10361000BE01C093C0018C2FCF910C94FB1ACF91A7
:1036200008958091C001882349F01092C001109242
:10363000BF011092BE0180E00C94FB1A0895E09146
:103640000001F09101018091E3018083E09100018C
:10365000F091010180819091E201892B8083E091BA
:103660000001F091010180819091E101892B80831B
:103670008091C001882321F10E945C1A882371F097
:103680008091E40180FF08C08AE593E09F938F93C7
:103690000E9442080F900F900E94111BE0910001C0
:1036A000F091010180819091C001892B80838091EC
:1036B0000001909101010E946A1C81110E94111B5E
:1036C00080910001909101010C94580E08950C9482
:1036D000661B98E0899F90011124622B6093BD01C5
:1036E0000E9469180E949F1D9093BC018093BB01AA
:1036F0008091BD018595859585950C94671B1092E9
:10370000BD011092BC011092BB0180E00C94671BBC
:103710009091BD01809589238093BD01282F27704A
:1037200071F4282F082E000C330B9217130639F072
:103730008595859585950E949A180C947F1B089510
:1037400090932D0180932C010895829594E0899F98
:10375000900111242C7C869586958373282B30E06C
:10376000C901880F991F8A7A359527952575822B6F
:103770000895CF93DF93D92F0E94A51BC82F8D2FBB
:103780000E94A51B9C2FDF91CF91089590E080E0CF
:103790000E94202E9C0181E02C3E3E4F09F080E0EB
:1037A000089582E090E00C94182E83E090E00C9451
:1037B000182ECF9384E090E00E94182EC82F81E24B
:1037C00090E00E94182E982F8C2FCF910895CF93C0
:1037D000682FC92F84E090E00E94262E6C2F81E292
:1037E00090E0CF910C94262EAB01BC018FE090E0CD
:1037F0000C94382EAB01BC0183E190E00C94382E80
:1038000060E070E0CB010C94FA1B60E070E0CB014B
:103810000E94F41B0C94001C6CEE7EEF90E080E0A4
:103820000E94442E60E082E090E00E94262E60E03C
:1038300083E090E00E94262E1092B7011092B8010A
:103840001092B9011092BA0160E084E090E00E9409
:10385000262E60E081E290E00E94262E60E085E066
:1038600090E00E94262E60E086E090E00E94262EE6
:103870006FEF87E090E00E94262E40E050E0BA0112
:1038800088E090E00E94382E60E08DE090E00E9499
:10389000262E40E050E0BA0188E190E00E94382EE8
:1038A00060E087E190E00E94262E40E050E0BA01FF
:1038B0008CE190E00E94382E60E080E290E00E946F
:1038C000262E0C94051C0C940C1C682F8EE090E0A6
:1038D0000C94262EFC01329680911201882321F04F
:1038E00080911E029EE187FF96E080E0915008F4EF
:1038F000089521912223D1F38F5FF8CF9C01FC0121
:1039000032968FEF90E04191461751F08F3F19F4B6
:10391000411101C0892F9F5F9630A9F78F3F09F4AD
:103920000895280F311D87FD3A95F90162830895A6
:103930009C01FC013296285F3F4F8191861303C0A2
:10394000DF0111971C92E217F307B9F70895E62FEC
:10395000E695E695E695603F70F4E80FF92FF11DC6
:10396000677021E030E001C0220F6A95EAF782819A
:10397000822B828308958091E40180FF0CC01F9206
:103980006F938AE893E09F938F930E9442080F9071
:103990000F900F900F900895E62FE695E695E69527
:1039A000603F78F4E80FF92FF11D677081E090E037
:1039B00001C0880F6A95EAF78095928189238283F6
:1039C00008958091E40180FF0CC01F926F938CE6F4
:1039D00093E09F938F930E9442080F900F900F9057
:1039E0000F90089520911201222329F020911E02A8
:1039F00027FD0C94A71C0C947E1C209112012223FD
:103A000029F020911E0227FD0C94CC1C0C94981CCC
:103A1000FC01329680911201882351F080911E02A0
:103A200087FF06C08EE1DF011D928A95E9F70895B0
:103A300086E0F9CF089508950C941B1D0E941C1D6B
:103A400080912402843049F11092E50188E190E0F0
:103A500020E40FB6F894A895809360000FBE2093E1
:103A6000600080E00E9465090E941C1D83B7817F71
:103A7000846083BF83B7816083BF7894889583B760
:103A80008E7F83BF0FB6F894A895809160008861FF
:103A900080936000109260000FBE08950895CF9348
:103AA0000E941A1D0E944F080E944E1DC0E08C2FDC
:103AB0000E94AB08892B31F4CF5FC530C1F780E09D
:103AC000CF91089581E0FCCF08950C94641D0E946D
:103AD000F6130E944C0E0E9465090C94651D1F92FE
:103AE0001FB61F9211248F939F93AF93BF93809122
:103AF000E501811113C080911A0290911B02A091DF
:103B00001C02B0911D024196A11DB11D80931A02A5
:103B100090931B02A0931C02B0931D02BF91AF9122
:103B20009F918F911F901FBE1F90189582E084BDBA
:103B300093E095BD9AEF97BD80936E0008952FB7DF
:103B4000F89480911A0290911B02A0911C02B091EE
:103B50001D022FBF0895CF93DF9300D000D0CDB7C3
:103B6000DEB78FB7F89420911A0230911B02409172
:103B70001C0250911D0229833A834B835C838FBFC3
:103B800069817A818B819C810F900F900F900F90AB
:103B9000DF91CF910895CF92DF92EF92FF929C0137
:103BA0004FB7F89480911A0290911B02A0911C02C9
:103BB000B0911D024FBF6C017D01EE24FF24A901CD
:103BC00070E060E0C416D506E606F70638F0821B02
:103BD000930BFF90EF90DF90CF9008950197F7CF70
:103BE00078941F921FB61F9211248F939F93AF93C7
:103BF000BF9380911A0290911B02A0911C02B09178
:103C00001D020196A11DB11D80931A0290931B0203
:103C1000A0931C02B0931D02BF91AF919F918F9111
:103C20001F901FBE1F90189587E797E79093010894
:103C30008093000888E19AE00FB6F894A8958093E5
:103C400060000FBE90936000FFCFCF93DF9300D052
:103C500000D0CDB7DEB70E94C61B811102C00E9402
:103C6000631C0E94D11B8093E4010E94D91B909396
:103C70001F0280931E020E94D51B282F30E050E0C7
:103C800040E029833A834B835C83CA01B9010F90DA
:103C90000F900F900F90DF91CF910C94B5178091FA
:103CA000E90180FF12C06091050185E0689FB001C5
:103CB0001124759567957595679560387105A8F518
:103CC00061157105A1F1862F089581FF09C06091EA
:103CD000050185E0689FB001112475956795EDCFCA
:103CE0006091050182FD0AC08091E8018823D1F02E
:103CF0009091040160910501891728F085E0689F83
:103D0000B0011124DACF869FB001112485E0869F8F
:103D10009001879F300D1124692F70E0C9010E9426
:103D2000EA2DCBCF65E070E0CECF8FE7089581E03C
:103D300008958091E90180FF0CC06091030170E05B
:103D400075956795759567956115710549F1862F8C
:103D5000089581FF06C06091030170E07595679535
:103D6000F3CF6091030182FD0BC09091E80199238C
:103D7000A1F06091020180910301961738F0682F3D
:103D800070E06038710500F38FE70895899FC001E6
:103D9000112470E00E94EA2DF4CF61E070E0D7CFEB
:103DA00081E00895803F31F40E944F1E81958093F9
:103DB000ED010895813F19F40E944F1EF8CF823F14
:103DC00031F40E944F1E81958093EC010895833F4A
:103DD00019F40E944F1EF8CF893F29F40E94991EC2
:103DE0008093EE0108958A3F21F40E94991E8195E7
:103DF000F7CF8B3F31F40E94991E81958093EF019C
:103E000008958C3F19F40E94991EF8CF843F31F435
:103E10008091EB0181608093EB010895853F21F44F
:103E20008091EB018260F7CF863F21F48091EB0116
:103E30008460F1CF873F21F48091EB018860EBCF64
:103E4000883F21F48091EB018061E5CF8D3F31F413
:103E50008091E90181608093E90108958E3F21F40A
:103E60008091E9018260F7CF8F3FB9F78091E90136
:103E70008460F1CF9091EC01803F41F48091ED019D
:103E800087FD1092ED01992371F00895813F29F487
:103E90008091ED011816ACF3F6CF823F81F497FFC5
:103EA000F2CF1092EC018091ED019091EE01892BFF
:103EB0009091EF01892B49F71092E8010895833F13
:103EC00019F4191674F3DFCF893F39F48091EE01AC
:103ED0001816CCF61092EE01D6CF8A3F29F48091C5
:103EE000EE0187FFD0CFF6CF8B3F39F48091EF0101
:103EF00087FFC9CF1092EF01C6CF8C3F29F4809184
:103F0000EF011816BCF3BFCF843F31F48091EB0171
:103F10008E7F8093EB01B7CF853F21F48091EB0139
:103F20008D7FF7CF863F21F48091EB018B7FF1CF1E
:103F3000873F21F48091EB01877FEBCF883F21F40D
:103F40008091EB018F7EE5CF8D3F31F48091E901C7
:103F50008E7F8093E90197CF8E3F21F48091E90114
:103F60008D7FF7CF8F3F09F08ECF8091E9018B7F56
:103F7000F0CF8091E40183FF7EC08FEC93E00E943C
:103F8000A9078091EB011F928F938AEC93E09F9396
:103F90008F930E94420888EC93E00E94A9078091C9
:103FA000EC01282F082E000C330B3F938F9385ECE8
:103FB00093E09F938F930E94420883EC93E00E94CA
:103FC000A9078091ED01282F082E000C330B3F9399
:103FD0008F9380EC93E09F938F930E9442088EEB27
:103FE00093E00E94A9078091EE01282F082E000C73
:103FF000330B3F938F938BEB93E09F938F930E94B0
:10400000420889EB93E00E94A9078091EF01282FD5
:10401000082E000C330B3F938F9386EB93E09F9316
:104020008F930E94420883EB93E00E94A90780913E
:10403000E8011F928F9380EB93E09F938F930E94F0
:1040400042088EEA93E00E94A9078091E9011F923D
:104050008F938BEA93E09F938F930E94420888EAA4
:1040600093E00E94A9078DB79EB74C960FB6F894BF
:104070009EBF0FBE8DBF8AEE91E00E94B30E0E94DC
:104080009F1D9093E7018093E60108951F93CF93BE
:10409000DF938091E6019091E7010E94CB1DAC0176
:1040A0008091E8012091060130E0811106C0209145
:1040B00007019AE0299F900111244217530778F0D5
:1040C0002091EC01C091ED011091EE01D091EF0132
:1040D000211109C09C2F912B9D2B09F06AC0DF9103
:1040E000CF911F9108958F3F19F08F5F8093E80162
:1040F000121624F40E944F1E8093EC018091EC0173
:1041000087FF05C00E944F1E81958093EC011C160D
:1041100024F40E944F1E8093ED018091ED0187FFF2
:1041200005C00E944F1E81958093ED013091EC01F6
:104130003323A1F02091ED01222381F045EB3403DC
:10414000C0011124992369F19093EC0145EB2403FC
:1041500090011124332349F13093ED01111624F419
:104160000E94991E8093EE018091EE0187FF05C0A9
:104170000E94991E81958093EE011D1624F40E94E1
:10418000991E8093EF018091EF0187FF05C00E9487
:10419000991E81958093EF01DF91CF911F910C942F
:1041A000B91F81E08093EC01D1CF81E08093ED01D4
:1041B000D5CF8F3F09F099CFAACF86E0EAEEF1E0A4
:1041C000DF011D928A95E9F71092E8011092E9014A
:1041D000089582EF95E00E94A9071F9281E08F93D6
:1041E0001F9285E08F9384EA95E09F938F930E94BE
:1041F00042080F900F900F900F900F900F9008951E
:10420000843009F45DC040F4823061F1833009F4F8
:1042100040C0813041F00895853009F468C086308F
:1042200009F47CC0089580910701482F460F552757
:10423000551F4F3F510594F4680F6093070180911B
:1042400007011F928F938DED94E09F938F930E94AF
:1042500042080F900F900F900F9008958FEF80936A
:104260000701EDCF80910601482F460F5527551FB6
:104270004F3F510554F4680F609306018091060189
:104280001F928F938BEC94E0E0CF8FEF8093060129
:10429000F5CF80910501482F460F5527551F4F3FF9
:1042A000510554F4680F60930501809105011F9238
:1042B0008F9388EB94E0C9CF8FEF80930501F5CF02
:1042C00080910401482F460F5527551F4F3F510538
:1042D00054F4680F60930401809104011F928F933E
:1042E00083EA94E0B2CF8FEF80930401F5CF809101
:1042F0000301482F460F5527551F4F3F510554F4D2
:10430000680F60930301809103011F928F938AE8E5
:1043100094E09BCF8FEF80930301F5CF8091020152
:10432000482F460F5527551F4F3F510554F4680F2E
:1043300060930201809102011F928F938FE694E0B7
:1043400084CF8FEF80930201F5CF843009F44AC007
:1043500038F4823029F18330A1F1813041F00895A1
:10436000853009F450C0863009F45EC0089580910C
:104370000701681790F4861B80930701809107015D
:104380001F928F9380E694E09F938F930E94420840
:104390000F900F900F900F90089510920701EECF9D
:1043A00080910601681750F4861B80930601809166
:1043B00006011F928F938EE494E0E6CF10920601DF
:1043C000F6CF80910501681750F4861B8093050194
:1043D000809105011F928F938BE394E0D5CF1092CB
:1043E0000501F6CF80910401681750F4861B809375
:1043F0000401809104011F928F9386E294E0C4CF60
:1044000010920401F6CF80910301681750F4861BC7
:1044100080930301809103011F928F938DE094E0BC
:10442000B3CF10920301F6CF80910201681750F4C8
:10443000861B80930201809102011F928F9382EF6D
:1044400093E0A2CF10920201F6CFCF93DF9300D07A
:1044500000D0CDB7DEB789831F928F9387EF96E0A8
:104460009F938F930E94420881E090E0A0E0B0E02B
:104470009C01AD01098004C0220F331F441F551F4A
:104480000A94D2F729833A834B835C83CA01B9012A
:104490000E94B5170F900F900F900F900F900F90F4
:1044A0000F900F90DF91CF910C94F613CF93DF9381
:1044B000EBEFE80FEF3308F04FC2F0E0E857F14DB3
:1044C0000C94FE2D8AE99CE00E94A90786ED9BE0F2
:1044D0000E94A9070E94D51B1F928F9383ED9BE03A
:1044E0009F938F930E94420881ED9BE00E94A90751
:1044F0000E94D11BC82F8EEB9BE00E94A9071F9240
:10450000CF9389EB9BE09F938F930E94420887EBA8
:104510009BE00E94A9078DEA9BE00E94A9078C2FCF
:1045200081701F928F938AEA9BE09F938F930E94E2
:10453000420888EA9BE00E94A9078EE99BE00E945E
:10454000A907C1FB882780F91F928F938BE99BE015
:104550009F938F930E94420889E99BE00E94A907DC
:104560008DE89BE00E94A907C2FB882780F91F9273
:104570008F938AE89BE09F938F930E94420888E87C
:104580009BE00E94A9078FE79BE00E94A907C3FB5D
:10459000CC27C0F91F92CF938CE79BE09F938F931A
:1045A0000E9442088AE79BE00E94A9070E94D91B4B
:1045B000EC0186E69BE00E94A907DF93CF9381E69A
:1045C0009BE09F938F930E9442088FE59BE00E949F
:1045D000A90786E49BE00E94A9078C2F81701F9297
:1045E0008F9383E49BE09F938F930E9442088DB743
:1045F0009EB780960FB6F8949EBF0FBE8DBF81E424
:104600009BE00E94A9078AE29BE00E94A907C1FBE8
:10461000882780F91F928F9387E29BE09F938F9367
:104620000E94420885E29BE00E94A90783E19BE08B
:104630000E94A9078D2F81701F928F9380E19BE0CC
:104640009F938F930E9442088EE09BE00E94A907EF
:104650008CEF9AE00E94A907D695D1701F92DF9344
:1046600089EF9AE09F938F930E94420887EF9AE028
:104670000E94A90785EE9AE00E94A907C2FB88273D
:1046800080F91F928F9382EE9AE09F938F930E94FE
:10469000420880EE9AE00E94A9078EEC9AE00E9400
:1046A000A907C3FB882780F91F928F938BEC9AE0B0
:1046B0009F938F930E94420889EC9AE00E94A90779
:1046C0008FEB9AE00E94A907C4FB882780F91F920C
:1046D0008F938CEB9AE09F938F930E9442088AEB12
:1046E0009AE00E94A90788EA9AE00E94A907C5FB00
:1046F000882780F91F928F9385EA9AE09F938F9382
:104700000E94420883EA9AE00E94A90787E89AE09B
:104710000E94A907C6FB882780F91F928F9384E81F
:104720009AE09F938F930E9442088DB79EB7809620
:104730000FB6F8949EBF0FBE8DBF82E89AE00E942C
:10474000A9078AE79AE00E94A907C7FBCC27C0F90E
:104750001F92CF9387E79AE09F938F930E9442081E
:1047600085E79AE00E94A9070F900F900F900F9095
:1047700081E01CC089E89CE00E94A9070E94631C9C
:10478000F7CF83EC98E00E94A907F2CF8091E40173
:10479000807F8093E4018CE998E00E94A90785E876
:1047A0009CE00E94A90781E08093F101DF91CF9105
:1047B00008950E94F61389E69CE00E94A9079FEFE6
:1047C00023ED80E3915020408040E1F700C00000DD
:1047D0000E94141ECDCF9091E401892F8E7F90FF0F
:1047E00081608093E40180FF03C08DE59CE0CBCF26
:1047F00080E59CE00E94A9078091E401817F80937D
:10480000E401B6CF9091E401892F8D7F91FF826002
:104810008093E40181FF08C083E49CE00E94A90723
:104820008091E4018160EBCF85E39CE0ACCF909177
:10483000E401892F8B7F92FF84608093E40182FFE3
:1048400003C086E29CE0EACF86E19CE09CCF909199
:10485000E401892F877F93FF88608093E40183FFC1
:1048600003C08AE09CE0DACF8DEF9BE08CCF8DE82F
:1048700098E00E94A90781E698E00E94A9078CE1D0
:1048800098E00E94A90783EE97E00E94A90788EAB2
:1048900097E00E94A9078DE797E075CF8FE697E034
:1048A0000E94A9070E944C0E1F928F9385E597E006
:1048B0009F938F930E944208809112011F928F93C1
:1048C0008EE397E09F938F930E9442088091160297
:1048D0001F928F938BE297E09F938F930E944208E1
:1048E00080911E0287FB882780F91F928F9383E1B6
:1048F00097E09F938F930E9442080E94AB1D9F9365
:104900008F937F936F938CEF96E09F938F930E948A
:1049100042088DB79EB746960FB6F8949EBF0FBE5D
:104920008DBF26CF0E94F61390911E02892F97FB10
:1049300087F9805880931E0287FF03C083EF9BE0B6
:1049400022CF88EE9BE01FCF80E00E94252210CF6F
:104950008953FBCF8D51F9CF86EE9BE00E94A907CA
:1049600080E024CF80E008950C94B2248E518A30E8
:1049700030F4E82FF0E0ED5EFE4F8081089580E096
:104980000895CF93C82F8091F1018130A9F0823032
:1049900009F446C0811136C10E94C11A823209F061
:1049A00033C18C2F0E94B22481111BC08C2F0E9416
:1049B00056228170CF9108950E94C11A823289F3E4
:1049C0008C2F0E94B42481111BC0C431D9F060F433
:1049D000CB3071F0C031D1F08DEE96E00E94A90786
:1049E00013C081E090E0E5CFC93261F0C833A1F790
:1049F0008CE998E00E94A90783EF96E00E94A9073E
:104A000081E0D7CF1092F10180E0D3CF0E94E9205E
:104A10008FEE96E00E94A90782E08093F101F0CF2B
:104A2000C93209F445C060F5C33109F450C050F4EF
:104A3000C73009F4CDC0CB30C1F181E995E00E94C7
:104A4000A9071CC0C431A1F182EE8C0F8630A8F7F3
:104A50008C2F0E94B6248093F0018091F00188236E
:104A600009F4CDC01F928F938BE895E09F938F93AD
:104A70000E9442080F900F900F900F9081E09ACF04
:104A8000CE3409F4A3C050F4C83379F06AE0CB34D3
:104A9000A1F68091F0010E940021DFCFC13509F419
:104AA0008FC061E0C235A9F3C8CF0E94E920D5CFFD
:104AB0008091F001882319F01092F001CECF80EAA6
:104AC00095E00E94A90781E08093F10173CF8AE706
:104AD00095E00E94A90788E695E00E94A9078091C9
:104AE00007011F928F9385E695E09F938F930E9415
:104AF000420883E695E00E94A90781E595E00E94BF
:104B0000A907809106011F928F938EE495E09F93F1
:104B10008F930E9442088CE495E00E94A9078DE3E0
:104B200095E00E94A907809105011F928F938AE367
:104B300095E09F938F930E94420888E395E00E943E
:104B4000A90787E295E00E94A907809104011F92BE
:104B50008F9384E295E09F938F930E94420882E2B4
:104B600095E00E94A9078DE095E00E94A907809139
:104B700003011F928F938AE095E09F938F930E9489
:104B8000420888E095E00E94A90781EF94E00E9426
:104B9000A907809102011F928F938EEE94E09F935C
:104BA0008F930E9442088CEE94E00E94A9078DB773
:104BB0009EB748960FB6F8949EBF0FBE8DBF4DCFDF
:104BC00061E08091F0010E94A52147CF6AE0F9CF12
:104BD0008EE18093070182E3809306018AE080934F
:104BE000050184E18093040188E08093030188E259
:104BF0008093020183E995E00E94A9072ECF88E8FF
:104C000095E01DCF1092F10180E0D4CE8091150285
:104C100008959FB7F8941092F4019FBF90912402D9
:104C2000943009F048C02091E9002F703091EC00D9
:104C3000932F917030FD90E8922B23E02093E900B0
:104C40002091EB0020FF34C02091EE0027FF30C000
:104C50002091F201222321F02091E80025FF28C0B5
:104C60001092F20126E03091E80035FF14C08093E5
:104C7000F1008091E80085FD27C08091E80080FF69
:104C8000FCCF8091E8008E778093E8009F7090932E
:104C9000E90080E0089530912402343049F43091E5
:104CA000EB0035FD05C0215041F481E08093F20115
:104CB0009F709093E9008FEF0895EFE9FFE031973F
:104CC000F1F700C00000CFCF8FB7F89421E0209318
:104CD000F4018FBFDBCF0F931F93CF93DF9300D0EF
:104CE0000F92CDB7DEB78C010E943A29823011F0C5
:104CF000843021F584E089830A831B8382E08093DA
:104D0000E9008FEF9091E800815095FD06C095ED88
:104D10009A95F1F700008111F5CF8091E80085FFA9
:104D20000DC050E040E063E070E0CE0101960E94CB
:104D300057298091E8008E778093E8000F900F90BC
:104D40000F90DF91CF911F910F910895CF93DF9333
:104D500000D00F92CDB7DEB79C0180912402843041
:104D600031F583E08983205831093B832A8382E02F
:104D70008093E9008FEF9091E800815095FD06C087
:104D800095ED9A95F1F700008111F5CF8091E8003B
:104D900085FF0DC050E040E063E070E0CE01019679
:104DA0000E9457298091E8008E778093E8000F9049
:104DB0000F900F90DF91CF910895CF93DF93D82F6D
:104DC000C92F0E943A29823011F0843001F582E027
:104DD0008093E9008FEF9091E800815095FD06C027
:104DE00095ED9A95F1F700008111F5CF8091E800DB
:104DF00085FF0DC050E040E066E070E08D2F9C2FF5
:104E00000E9457298091E8008E778093E800DF9117
:104E1000CF910895CF93DF93D82FC92F0E943A29BD
:104E2000823011F08430C9F5809112018823C1F1DC
:104E300080911E0287FF34C060E282E08093E90027
:104E40008FEF9091E800815095FD06C095ED9A9501
:104E5000F1F700008111F5CF8091E80085FF1DC0BA
:104E60008091120170E050E040E0811104C050E0F8
:104E700040E068E070E08D2F9C2F0E9457298091C0
:104E8000E8008E778093E80080E2ED2FFC2FA5EFFD
:104E9000B1E001900D928A95E1F7DF91CF910895ED
:104EA00068E081E0CBCF8AEC9CE00E94A90780916A
:104EB0002302811109C00E94DF2A0E943C2B8091AD
:104EC000E20084608093E200089586EC9CE00E94FA
:104ED000A90710922302089582EC9CE00C94A90784
:104EE0008EEB9CE00C94A9078AEB9CE00E94A9073A
:104EF0000C94671D2091F3012F5F822F62E30E94C3
:104F0000DE2D992319F02093F30108951092F301F7
:104F10008091F4018823F1F0809124028430C1F45F
:104F20009091E9009F702091EC00822F817020FD0C
:104F300080E8892B93E09093E9009091EB0090FF3B
:104F400004C09091EE0097FD08C08F708093E90037
:104F50001092F40108951092F1009091E80095FDEF
:104F6000FACF9091E80090FFF0CF9091E8009E7703
:104F70009093E800EACF42E061EC81E00E945B2A76
:104F800042E261EC82E00E945B2A42E261EC83E053
:104F90000C945B2A80912602893089F148F4823092
:104FA00009F49DC0833009F458C0813041F0089560
:104FB0008A3009F484C08B3009F46AC00895809166
:104FC0002502813A09F048C08091E800877F8093EC
:104FD000E8008091290290912A02892B61F460E215
:104FE00085EF91E070E00E94A6298091E8008B7720
:104FF0008093E800089560E090E080E0F3CF809136
:105000002502813249F58091290290912A02029766
:1050100018F58091E800877F8093E8008091E80090
:1050200082FF16C09091F3008091F200029729F45C
:105030008091F1008B7F813021F48091F100809389
:1050400015028091E8008B778093E8000C948F2AFA
:10505000809124028111E2CF089580912502813A46
:10506000D9F78091290290912A02892BA9F7809182
:10507000E800877F8093E8008091E80080FFFCCF04
:10508000809112018093F1008091E8008E77DCCF4F
:1050900080912502813201F78091290290912A02A4
:1050A000892BD1F68091E800877F8093E8000E94E9
:1050B0008F2A80912702809312010C94F61380911D
:1050C0002502813249F68091E800877F8093E800CD
:1050D0000E948F2A80912802809316020895809161
:1050E0002502813A09F0B8CF8091E800877F80934C
:1050F000E8008091E80080FFFCCF80911602C2CFCB
:1051000084B7877F84BF0FB6F894A895809160001C
:10511000886180936000109260000FBE80E88093E9
:105120006100109261000E94FC0E0E94DF2A0E9422
:105130003C2B8091E20084608093E20089E096E25B
:105140000E94A01B78940E94C32D0E94040F88E047
:1051500091E00E94470E89EA9CE00E94A907809195
:105160002402853019F00E94340FF9CF85EA9CE0C3
:105170000E94A9070E941E1D80912202882379F3B4
:105180000E944F1D882359F30E944129E8CF0C94B7
:10519000C928FC01CB01DA012F2F33272330310539
:1051A000D1F070F42130310509F44EC022303105C0
:1051B00069F48BE590E028E13DE02D933C93089560
:1051C0002132310521F12232310571F190E080E088
:1051D00030E020E0F2CFCF019927E230A9F0833010
:1051E000910550F4009769F0E4EFFCE0019771F746
:1051F000849190E09F01E1CFEEECFCE00397C1F3D6
:10520000E5CFE4E1FDE0F4CFE4EDFCE0F1CF633085
:105210007105E0F6880F991FFC01EA5DFE4F2081C1
:10522000318189E090E0C9CF6330710578F6FB01E8
:10523000EE0FFF1FE05EFE4F20813181835E9E4FA7
:10524000FC01808190E0B9CF82E190E023E73DE06E
:10525000B4CF0895CF93C82F0E942929C093170275
:10526000CF91089580912402843011F482E0089552
:1052700081E0089580911702811102C00C943229B7
:10528000089580E189BD82E189BD09B400FEFDCFAA
:105290008091D8008F7D8093D8008091E00082605B
:1052A0008093E0008091E00081FDFCCF0895AF92F3
:1052B000BF92CF92DF92FF920F931F93CF93DF9312
:1052C0006C01EB018A010E94AE2AF82E811123C0E5
:1052D0000115110539F0F80180819181C81BD90BA6
:1052E000C80ED91EB12CA12C2097A9F08091E800FE
:1052F00085FD22C08091E8008E778093E80001153B
:105300001105A1F0F80180819181A80EB91EB1822A
:10531000A08285E0F82E8F2DDF91CF911F910F9104
:10532000FF90DF90CF90BF90AF9008950E94AE2A7B
:105330008823D1F2F82EEFCFF60181916F0180938F
:10534000F1002197FFEFAF1ABF0ACECFFC01CB01CE
:1053500020912B0230912C022617370790F00097EE
:1053600029F42091E8002E772093E80040E0009790
:1053700051F4411108C08091E80082FF31C080E003
:105380000895C901F3CF209124022223A9F12530E9
:10539000A9F12091E80023FD2DC02091E80022FD15
:1053A000EACF2091E80020FFE2CF3091F300209176
:1053B000F200009719F02830310558F041E028300C
:1053C000310509F040E02091E8002E772093E800B5
:1053D000CECF41914093F10001972F5F3F4FE9CF2E
:1053E00080912402882341F0853041F08091E800CB
:1053F00083FFC1CF81E0089582E0089583E008959E
:10540000FC01CB0120912B0230912C02261737078B
:1054100090F0009729F42091E8002E772093E8007F
:1054200040E0009751F4411108C08091E80082FFEC
:1054300032C080E00895C901F3CF209124022223D5
:10544000B1F12530B1F12091E80023FD2EC020916B
:10545000E80022FDEACF2091E80020FFE2CF309162
:10546000F3002091F200009719F02830310558F030
:1054700041E02830310509F040E02091E8002E7726
:105480002093E800CECF44914093F10031960197EC
:105490002F5F3F4FE8CF80912402882341F0853071
:1054A00041F08091E80083FFC0CF81E0089582E061
:1054B000089583E00895982F973028F08F70809397
:1054C000E90081E008959093E900242F762F50E0C1
:1054D000981731F07091EC002091ED005091F000A0
:1054E00021FD02C09F5FE8CF3091EB003E7F3093FB
:1054F000EB003091ED003D7F3093ED003091EB00FB
:1055000031603093EB007093EC002093ED005093EA
:10551000F0002091EE0027FDE5CF80E00895809116
:10552000250287FF13C08091E80082FF06C08091AA
:10553000E8008B778093E80004C0809124028111F9
:10554000F2CF0895809124028823D9F38091E80056
:1055500080FFF8CF8091E8008E77ECCF2091E400B7
:105560003091E50095E6A9012091EC00822F817031
:1055700020FF06C08091E80080FF06C080E008950B
:105580002091E80022FD1AC080912402882389F02E
:10559000853089F08091EB0085FD0FC02091E400FB
:1055A0003091E50042175307F9F29150E1F684E09B
:1055B000089582E0089583E0089581E008950E94AF
:1055C0004D2B0E94552BE0EEF0E0808181608083BE
:1055D000E8EDF0E080818F77808319BCA7EDB0E023
:1055E0008C918E7F8C9380818F7E8083109223029A
:1055F00008950F931F93CF93DF930E944D2B0E942A
:10560000552BC8EDD0E088818F77888388818068AA
:10561000888388818F7D888319BC10922402109220
:105620002002109222021092210200EE10E0F801F6
:1056300080818B7F808388818160888342E060E005
:1056400080E00E945B2AE1EEF0E080818E7F808323
:10565000E2EEF0E0808181608083808188608083D9
:10566000F80180818E7F8083888180618883DF91CB
:10567000CF911F910F910895E8EDF0E080818F7E2A
:105680008083E7EDF0E080818160808384E082BFE9
:1056900081E0809323020C94F92AE8EDF0E0808108
:1056A0008E7F80831092E20008951092DA001092AB
:1056B000E10008951F920F920FB60F9211242F93BD
:1056C0003F934F935F936F937F938F939F93AF938A
:1056D000BF93EF93FF938091E10082FF0BC0809115
:1056E000E20082FF07C08091E1008B7F8093E100A0
:1056F0000E947A278091DA0080FF19C08091D8003B
:1057000080FF15C08091DA008E7F8093DA0080914F
:10571000D90080FF94C080E189BD82E189BD09B4D0
:1057200000FEFDCF81E0809324020E9453278091E8
:10573000E10080FF19C08091E20080FF15C08091D8
:10574000E2008E7F8093E2008091E200806180938E
:10575000E2008091D80080628093D80019BC85E077
:10576000809324020E9470278091E10084FF29C069
:105770008091E20084FF25C080E189BD82E189BD7E
:1057800009B400FEFDCF8091D8008F7D8093D800B2
:105790008091E1008F7E8093E1008091E2008F7E16
:1057A0008093E2008091E20081608093E20080912A
:1057B0002002882309F449C084E0809324020E94D7
:1057C00074278091E10083FF29C08091E20083FF6C
:1057D00025C08091E100877F8093E10082E0809383
:1057E0002402109220028091E1008E7F8093E100DC
:1057F0008091E2008E7F8093E2008091E2008061E0
:105800008093E20042E060E080E00E945B2A8091A9
:10581000F00088608093F0000E946C27FF91EF9168
:10582000BF91AF919F918F917F916F915F914F91B8
:105830003F912F910F900FBE0F901F90189519BC9C
:10584000109224020E94652772CF8091E30087FDA9
:1058500002C081E0B2CF83E0B0CF1F920F920FB6AB
:105860000F9211242F933F934F935F936F937F93E6
:105870008F939F93AF93BF93CF93DF93EF93FF9358
:10588000D091E900DF708091EC00C82FC17080FDDD
:10589000C0E81092E9008091F000877F8093F000CB
:1058A00078940E94712C1092E9008091F000886039
:1058B0008093F000CD2BCF70C093E900FF91EF9162
:1058C000DF91CF91BF91AF919F918F917F916F9118
:1058D0005F914F913F912F910F900FBE0F901F90AE
:1058E00018951F93CF93DF93CDB7DEB7AA970FB666
:1058F000F894DEBF0FBECDBF85E292E0FC010196B9
:105900002091F100208322E08D329207B9F70E94A6
:10591000CA278091E80083FF1EC1809125029091E3
:1059200026029A3008F017C1E92FF0E0E953F14D53
:105930000C94FE2D803899F0823809F00CC18091CA
:1059400029028F70873008F006C18093E9008091AA
:10595000EB0085FB882780F91092E90006C0809152
:10596000210290912202911182609091E800977F2C
:105970009093E8008093F1001092F1008091E8008C
:105980008E77E5C0882309F4D3C0823009F0E3C0E4
:10599000809127028111D6C0809129028F702FEF4C
:1059A000280F263008F0D7C08093E9002091EB0043
:1059B00020FFC8C0933031F48091EB008062809367
:1059C000EB00C0C09091EB0090619093EB0021E060
:1059D00030E001C0220F8A95EAF72093EA00109286
:1059E000EA008091EB008860EACF8111B4C0109189
:1059F00027021F778091E3008078812B8093E3005A
:105A00008091E800877F8093E8000E948F2A809130
:105A1000E80080FFFCCF8091E30080688093E30082
:105A200082E0111183E08093240295C08058823077
:105A300008F091C080912702909128028C3D23E0CC
:105A40009207A1F583E08A838AE289834FB7F894AD
:105A5000DE01139620E03EE051E2E32FF0E05093A8
:105A60005700E49120FF03C0E295EF703F5FEF70B5
:105A70008E2F90E0EA30C0F0C7968D939D932F5FF4
:105A8000243159F74FBF8091E800877F8093E80069
:105A90006AE270E0CE0101960E94A6298091E8009A
:105AA0008B778093E80057C0C096E7CF60912902BA
:105AB00070912A02AE014F5F5F4F0E94C728BC0160
:105AC000892B09F448C08091E800877F8093E80023
:105AD00089819A810E94002AE1CF8038E1F5809186
